:100000000C942A000C9447000C9447000C94470071
:100010000C9447000C9447000C9447000C940C037C
:100020000C9447000C9447000C9447000C94470034
:100030000C9447000C9447000C9447000C94470024
:100040000C9447000C9447000C9447000C94470014
:100050000C94470011241FBECFE5D8E0DEBFCDBF12
:1000600010E0A0E6B0E0E4E2F3E102C005900D92FA
:10007000A636B107D9F723E0A6E6B0E001C01D928D
:10008000A533B207E1F70E949B000C9490090C94F1
:10009000000082E090E00E946E086FEF7FEF809199
:1000A0006800909169000E94BA04929A88EE93E0E9
:1000B0000E946E08929820E040E050E060E070E01E
:1000C00080916600909167000E941904E2CF6FEF63
:1000D0007FEF80916A0090916B000E94BA04919A20
:1000E00088EE93E00E946E08919820E040E050E096
:1000F00060E070E080916800909169000E941904AE
:10010000E6CF6FEF7FEF80916600909167000E94CD
:10011000BA04909A88EE93E00E946E08909820E0CE
:1001200040E050E060E070E080916A0090916B00E8
:100130000E941904E6CF8FEF81BB43E060E081E0CD
:100140000E94F60390936B0080936A0043E060E0A6
:1001500081E00E94F603909369008093680043E079
:1001600060E081E00E94F603909367008093660050
:1001700020E040E050E060E070E00E9419040F2EA3
:10018000F0E7EF2EF0E0FF2EF02D01E020E030E070
:1001900040E550E060E070E081E890E00E94EA0510
:1001A0000F2EFEE6EF2EF0E0FF2EF02D02E020E015
:1001B00030E040E550E060E070E087E690E00E94CB
:1001C000EA050F2EFCE6EF2EF0E0FF2EF02D03E007
:1001D00020E030E040E550E060E070E089E490E04D
:1001E0000E94EA050E94FC06FFCFCF93DF93EC014B
:1001F0000E9426078091720090917300892B31F440
:1002000087E790E0909373008093720020917400D0
:1002100030917500C9018C0F9D1F873542E094070E
:1002200070F42817390770F4C0917200D0917300F0
:10023000C20FD31F909375008093740005C0C0E077
:10024000D0E002C0C0E0D0E00E94EB07CE01DF9119
:10025000CF9108950895FC010396928381832FEF37
:100260003FEF34832383968385839087878310822F
:100270000895FC01118610860895CF93DF939C01A9
:10028000FB01DC011196CD91DC911297D383C283DF
:100290008C819D81958384838C819D81DC01139663
:1002A0007C936E9312977D836C8331872087F9014D
:1002B00080818F5F8083DF91CF910895CF93DF930B
:1002C000EB01488159814F3F2FEF520721F4FC0188
:1002D000A781B0850DC0DC01139601C0DF01129625
:1002E000ED91FC9113972081318142175307B0F7AC
:1002F0001296ED91FC911397FB83EA83D583C48317
:10030000BD83AC831396DC93CE931297998788872D
:10031000FC0120812F5F2083DF91CF910895CF933F
:10032000DF93FC01A085B185C281D3818481958151
:100330009D838C83C481D581828193819B838A83B1
:1003400011968D919C911297E817F90731F48481E9
:10035000958112969C938E931197118610868C919D
:1003600081508C938C91DF91CF91089531E1FC0104
:100370003083319722E220833197A3E3A083319722
:1003800060833197708331971082319760E8608382
:1003900031971082319762E06083319763E0608328
:1003A000319764E06083319765E06083319766E060
:1003B0006083319767E06083319768E060833197AD
:1003C00069E06083319760E16083319730833197D2
:1003D00032E13083319733E13083319734E1308338
:1003E000319735E13083319736E13083319737E10A
:1003F0003083319738E13083319739E13083319759
:1004000030E23083319731E2308331972083319766
:1004100023E220833197408331975083319726E23E
:100420002083319727E22083319728E22083319778
:1004300029E22083319720E32083319721E3208331
:10044000869708951BBC8EE08ABD8BE08EBD89B770
:10045000806189BFA0913303B0913403CD91CDBFAA
:10046000DD91DEBFFF91EF91DF91CF91BF91AF9111
:100470009F918F917F916F915F914F913F912F91BC
:100480001F910F91FF90EF90DF90CF90BF90AF90B2
:100490009F908F907F906F905F904F903F902F90A4
:1004A0001F900F900FBE0F90089581E008950F9256
:1004B0000FB6F8940F921F9211242F923F924F92F1
:1004C0005F926F927F928F929F92AF92BF92CF92E4
:1004D000DF92EF92FF920F931F932F933F934F93CF
:1004E0005F936F937F938F939F93AF93BF93CF93BC
:1004F000DF93EF93FF93A0913303B09134030DB6D4
:100500000D920EB60D920E948208A0913303B09115
:100510003403CD91CDBFDD91DEBFFF91EF91DF912F
:10052000CF91BF91AF919F918F917F916F915F918B
:100530004F913F912F911F910F91FF90EF90DF907E
:10054000CF90BF90AF909F908F907F906F905F9073
:100550004F903F902F901F900F900FBE0F900895D7
:100560000F920FB6F8940F921F9211242F923F9280
:100570004F925F926F927F928F929F92AF92BF92B3
:10058000CF92DF92EF92FF920F931F932F933F939F
:100590004F935F936F937F938F939F93AF93BF938B
:1005A000CF93DF93EF93FF93A0913303B091340384
:1005B0000DB60D920EB60D920E942C0781110E946D
:1005C0008208A0913303B0913403CD91CDBFDD916A
:1005D000DEBFFF91EF91DF91CF91BF91AF919F91DE
:1005E0008F917F916F915F914F913F912F911F91CB
:1005F0000F91FF90EF90DF90CF90BF90AF909F90C2
:100600008F907F906F905F904F903F902F901F90B2
:100610000F900FBE0F9008950E94B00218950FB66C
:10062000F8940F92FC01928D0F900FBE81E0911112
:1006300080E008950F931F93CF93DF93EC01042F75
:100640001A8D4C8D4423B9F1011116C050E08A81F6
:100650009B810E9487092C8D8A819B81820F911D2D
:100660009B838A832C813D818217930720F18881A7
:1006700099819B838A831FC050E08E819F810E9455
:1006800087098C8D90E09195819591092E813F810C
:10069000280F391F3F832E8348815981241735073E
:1006A00030F42C813D81820F931F9F838E83023013
:1006B00011F4111111501F5F1A8F80E0DF91CF915B
:1006C0001F910F910895EF92FF920F931F93CF9375
:1006D0008C010FB6F8940F92FC01C68D1C16ACF479
:1006E0008189811106C011C0F8018189811105C07D
:1006F0000CC07801F1E1EF0EF11CC7010E94FA086D
:1007000081110E948309C15079F78FEFF801868F1C
:100710000F900FBE0FB6F8940F92C58D1C16ACF457
:100720008085811106C011C0F8018085811105C046
:100730000CC07801F8E0EF0EF11CC7010E94FA0826
:1007400081110E948309C15079F78FEFF801858FDD
:100750000F900FBECF911F910F91FF90EF900895D2
:10076000CF93DF93EC010FB6F8940F92E881F981F3
:100770008B8D2C8D90E030E0829FA001839F500DE7
:10078000929F500D11244E0F5F1F5D834C831A8E74
:10079000FB83EA830197829FA001839F500D929F64
:1007A000500D1124CF01840F951F9F838E838FEFEF
:1007B0008D8F8E8F61110CC08885882389F0CE01C2
:1007C00008960E94FA08882359F00E94570208C030
:1007D000CE0108960E942B01CE0141960E942B016A
:1007E0000F900FBE81E0DF91CF9108950F931F937B
:1007F000CF93DF93082F162F869FC00111244F96A9
:100800000E94F500EC01009771F0111103C099836B
:10081000888303C04F96998388830B8F1C8F61E078
:10082000CE010E94B003CE01DF91CF911F910F91B5
:1008300008959F92AF92BF92CF92DF92EF92FF9274
:100840000F931F93CF93DF9300D000D01F92CDB7AB
:10085000DEB78C016B015D834C83A22EB12C9924F1
:1008600093947C0188E0E80EF11C0FB6F8940F9287
:10087000F801928D838D981718F0F2E0AF1219C02D
:100880004A2DB601C8010E941A03F80191899923E3
:1008900049F0C80141960E94FA08882331F00E946D
:1008A000570203C081110E9457020F900FBE81E0D2
:1008B00050C08C819D81892B21F40F900FBE80E068
:1008C00048C0B11005C0CE0101960E944209B92C62
:1008D0000F900FBE0E9426070FB6F8940F92F801F2
:1008E000858D8F3F09F4158EF801868D8F3F09F4B1
:1008F000168E0F900FBEBE016C5F7F4FCE0101962A
:100900000E944D0981111FC00FB6F8940F92F80193
:10091000928D0F900FBE838D98130FC06C817D81D7
:10092000C7010E94E808C8010E9463030E94EB0708
:1009300081119BCF0E94570298CFC8010E94630388
:100940000E94EB0792CFC8010E9463030E94EB074D
:1009500080E00F900F900F900F900F90DF91CF914C
:100960001F910F91FF90EF90DF90CF90BF90AF90CD
:100970009F900895CF92DF92EF92FF920F931F9373
:10098000CF93DF9300D000D01F92CDB7DEB78C019C
:100990007D836C83D12CCC24C3947C0181E1E80E4F
:1009A000F11C0FB6F8940F92F801828D882381F024
:1009B0008150828F8085882339F0C80108960E9473
:1009C000FA0881110E9457020F900FBE81E051C0BA
:1009D0008C819D81892B21F40F900FBE80E049C04E
:1009E000D11005C0CE0101960E944209DC2C0F9067
:1009F0000FBE0E9426070FB6F8940F92F801858D5E
:100A00008F3F09F4158EF801868D8F3F09F4168EFD
:100A10000F900FBEBE016C5F7F4FCE0101960E940A
:100A20004D0981111AC0C8010E940F03882379F073
:100A30006C817D81C7010E94E808C8010E946303A0
:100A40000E94EB078111ADCF0E945702AACFC801C7
:100A50000E9463030E94EB07A4CFC8010E946303B6
:100A60000E94EB07C8010E940F03882309F499CF65
:100A700080E00F900F900F900F900F90DF91CF912B
:100A80001F910F91FF90EF90DF90CF900895E0912C
:100A9000FB02F091FC028081811107C08FEF9FEF74
:100AA0009093D2028093D1020895E091FB02F091DD
:100AB000FC020580F681E02D0680F781E02D828121
:100AC00093819093D2028093D102089507EE12E0B1
:100AD0008091E6028823E1F30FB6F8940F92D801D3
:100AE0001596ED91FC911697C681D781CE0102969D
:100AF0000E948F018091DC0281508093DC02809102
:100B0000E60281508093E6020F900FBE8F89988D88
:100B10000E942A01CE010E942A018091E6028111E1
:100B2000DBCFD6CFFF920F931F93CF93DF93EC01D0
:100B3000F62E0091DA021091DB028091330390913E
:100B4000340302960E948F01CF3F8FEFD80769F4DC
:100B5000FF2059F060913303709134036E5F7F4F33
:100B60008DED92E00E943D012FC0C00FD11FE0919A
:100B70003303F0913403D383C283C017D10768F4E1
:100B800060913303709134038091F9029091FA02DD
:100B90006E5F7F4F0E945E0117C0609133037091BA
:100BA00034038091FB029091FC026E5F7F4F0E94A4
:100BB0005E018091D1029091D202C817D90720F42A
:100BC000D093D202C093D102DF91CF911F910F91A8
:100BD000FF9008954F925F926F927F928F929F92B3
:100BE000AF92BF92CF92DF92EF92FF920F93CF938B
:100BF000DF934C016B015A012901CA010E94F500E3
:100C00003C01892B09F4E7C086E290E00E94F500E0
:100C1000EC01892B59F0788E6F8A81E0A81AB1080F
:100C2000A60CB71CC114D10429F420C0C3010E9432
:100C30002A01D1C0D6018C91898F8C918823A1F093
:100C4000AE01465E5F4FF6013196B8E0CB0ED11C87
:100C5000CF012191DA012D93AD01DC018C91882324
:100C600019F0EC15FD05A1F718A201C0198E04308A
:100C700008F003E00E8B6E01B2E0CB0ED11CC60172
:100C80000E943901CE010C960E943901D987C8878C
:100C900084E090E0801B91099D878C87DB8BCA8B59
:100CA00019A21AA21BA21CA21DA2A201B401C50175
:100CB0000E94B60199838883E114F10419F0F701C9
:100CC000D183C0830FB6F8940F928091DC028F5FBE
:100CD0008093DC028091330390913403892BD1F50A
:100CE000D0933403C09333038091DC02813009F048
:100CF00041C08FE093E00E942B0188E193E00E94C5
:100D00002B0181E293E00E942B018AE293E00E9492
:100D10002B0186E093E00E942B018DEF92E00E9470
:100D20002B0180EF92E00E942B0187EE92E00E945F
:100D30002B018DED92E00E942B0186E093E09093D1
:100D4000FC028093FB028DEF92E09093FA02809375
:100D5000F90210C08091D80281110CC0E0913303D8
:100D6000F091340396898E89891720F0D09334034B
:100D7000C09333038091D3028F5F8093D3028E8917
:100D80009091D902981710F48093D90290E09C01B9
:100D9000220F331F220F331F220F331F820F931F87
:100DA000B601815F9C4F0E943D010F900FBE809164
:100DB000D802882361F0E0913303F09134039689DF
:100DC0008E89981730F40E94570281E005C081E0B7
:100DD00003C081E001C08FEFDF91CF910F91FF90B1
:100DE000EF90DF90CF90BF90AF909F908F907F90CB
:100DF0006F905F904F900895EF92FF920F930F2E98
:100E0000FFECEF2EF2E0FF2EF02D00E020E030E0CE
:100E100045E550E060E670E086E695E00E94EA0570
:100E2000813081F4F8948FEF9FEF9093D2028093FA
:100E3000D10281E08093D8021092DB021092DA0294
:100E40000E9422020F91FF90EF9008958091CE02B0
:100E50008F5F8093CE020895CF92DF92EF92FF9240
:100E60000F931F93CF93DF938091CE0281119FC088
:100E7000E090DA02F090DB028FEFE81AF80AF092C5
:100E8000DB02E092DA02E114F104B9F48091FB0292
:100E90009091FC022091F9023091FA023093FC0209
:100EA0002093FB029093FA028093F9028091D4027E
:100EB0008F5F8093D4020E9447058091D102909168
:100EC000D202E816F90610F4D12C53C0D12CCC2450
:100ED000C394E091FB02F091FC028081811107C074
:100EE0008FEF9FEF9093D2028093D10242C0E091A6
:100EF000FB02F091FC020580F681E02DC681D781CE
:100F00008A819B81E816F90628F49093D202809397
:100F1000D1022FC08E010E5F1F4FC8010E948F01AA
:100F20008C899D89892B21F0CE010C960E948F011E
:100F30008E899091D902981710F48093D90290E08D
:100F40009C01220F331F220F331F220F331F820FEA
:100F5000931FB801815F9C4F0E943D01E0913303D4
:100F6000F09134039E898689981708F4B2CFDC2C5F
:100F7000B0CFE0913303F0913403868990E0FC0117
:100F8000EE0FFF1FEE0FFF1FEE0FFF1F8E0F9F1FB5
:100F9000FC01E15FFC4F8081823010F0DD24D394AE
:100FA0008091D502882369F0DD24D3940AC0809112
:100FB000D6029091D70201969093D7028093D602E1
:100FC000D12C8D2DDF91CF911F910F91FF90EF903C
:100FD000DF90CF900895DF92EF92FF920F931F93CF
:100FE000CF93DF930FB6F8940F928091CE02815089
:100FF0008093CE028091CE02811163C08091DC0289
:10100000811133C061C0D7011596ED91FC911697FF
:10101000C681D781CE010C960E948F018E010E5F92
:101020001F4FC8010E948F018E899091D902981795
:1010300010F48093D90290E09C01220F331F220FFD
:10104000331F220F331F820F931FB801815F9C4F04
:101050000E943D01E0913303F09134039E8986891B
:10106000981768F0D092D5020AC0C0E0D0E00F2EE9
:10107000F0EFEF2EF2E0FF2EF02DDD24D394F701F8
:1010800080818111C0CFCD2B11F00E944705C09106
:10109000D602D091D702209761F011E00E942C0770
:1010A00081111093D5022197C9F71092D70210929F
:1010B000D6028091D502882331F00E94570281E048
:1010C00003C080E001C080E00F900FBEDF91CF91A0
:1010D0001F910F91FF90EF90DF900895CF93DF93D2
:1010E000EC01892B51F00E94260760E0CE010E949E
:1010F00092050E94EB07811102C00E945702DF9106
:10110000CF9108958091CE02882321F081E08093D1
:10111000D50208951092D5022091D902822F90E035
:10112000FC01EE0FFF1FEE0FFF1FEE0FFF1FE80F7A
:10113000F91FE15FFC4F3081311111C02150822F26
:1011400090E0FC01EE0FFF1FEE0FFF1FEE0FFF1FE1
:10115000E80FF91FE15FFC4F3081332379F3AC01D5
:10116000440F551F440F551F440F551F480F591F5B
:10117000DA01A15FBC4F1196ED91FC9112970280AC
:10118000F381E02D1296FC93EE9311974E5E5C4F27
:10119000E417F50729F442815381FD01528341830D
:1011A000FC01EE0FFF1FEE0FFF1FEE0FFF1F8E0F54
:1011B0009F1FFC01E15FFC4F0180F281E02D8681E1
:1011C000978190933403809333032093D902089539
:1011D000CF93DF93EB016091330370913403645F2D
:1011E0007F4F0E945E0161E0CE010E949205DF9177
:1011F000CF9108950F931F93CF93DF93DC01159642
:10120000ED91FC911697C681D7818E01045F1F4F27
:10121000C8010E948F018091CE0281111CC00A502A
:101220001109C8010E948F018E899091D9029817E7
:1012300010F48093D90290E09C01220F331F220FFB
:10124000331F220F331F820F931FB801815F9C4F02
:101250000E943D0105C0B80180EF92E00E943D016F
:10126000E0913303F09134039E898689891720F435
:1012700081E08093D50201C080E0DF91CF911F9182
:101280000F9108952091D402FC0120832091DA026D
:101290003091DB02328321830895CF93DF930FB621
:1012A000F8940F922091DA023091DB02DB014D912C
:1012B0005C914F3FBFEF5B07F1F0EC01E981FA81F0
:1012C000A091D402B881BA1719F02E173F07A8F4DD
:1012D0002E1B3F0B2417350748F4FB01421B530B11
:1012E000518340830E94420980E008C0FB011182C3
:1012F000108281E003C080E001C081E00F900FBE4A
:10130000DF91CF91089581E08093D5020895FB018C
:10131000DC0102C001900D9241505040D8F7089571
:04132000F894FFCF6F
:0613240049444C450000A5
:00000001FF
