S018000072746F732D5461736B2D45582D4C43442E73726563BA
S11300000C942A000C9447000C9447000C9447006D
S11300100C9447000C9447000C9447000C94F10393
S11300200C9447000C9447000C9447000C94470030
S11300300C9447000C9447000C9447000C94470020
S11300400C9447000C9447000C9447000C94470010
S11300500C94470011241FBECFE5D8E0DEBFCDBF0E
S113006010E0A0E6B0E0E0EFFFE002C005900D92E2
S1130070A03AB107D9F723E0A0EAB0E001C01D928D
S1130080A936B207E1F70E94D9010C94F6070C9443
S11300900000A89A00C0A89800C00895A99818BAAA
S11300A088BB0E9449000895A99A18BA88BB0E9487
S11300B049000895A19AA09A8FEF87BBA998A898A0
S11300C018BA87E893E10197F1F700C0000018BA65
S11300D088E30E944E000E94490085ED96E0019756
S11300E0F1F700C0000018BA88E30E944E000E9495
S11300F049008FE295E70197F1F700C0000018BAB4
S113010088E30E944E000E94490081E00E944E0054
S113011083EC99E00197F1F700C0000082E00E94AF
S11301204E0083EC99E00197F1F700C0000086E0EF
S11301300E944E0083EC99E00197F1F700C00000A3
S11301408DE00E944E0083EC99E00197F1F700C026
S1130150000080E10E944E0083EC99E00197F1F7E2
S113016000C0000086E50E944E0083EC99E00197F0
S1130170F1F700C0000080E80E944E0083EC99E093
S11301800197F1F700C000000895CF93C42F90E4C5
S1130190899F600D1124862F815C0E944E0089EF97
S11301A090E00197F1F700C000008C2F0E945400EA
S11301B089EF90E00197F1F700C00000CF91089516
S11301C0CF93DF93EA0190E4899F600D1124862F79
S11301D0815C0E944E0089EF90E00197F1F700C026
S11301E000008881882361F021960E94540083ECEA
S11301F099E00197F1F700C0000089918111F5CFD2
S1130200DF91CF910895CF93DF938AB38F618ABB37
S11302100E945A008FE493EC0197F1F700C00000AC
S11302204CE650E061E081E00E94E0009FE32DE0B5
S113023083E0915020408040E1F700C0000081E05D
S11302400E944E0083EC99E00197F1F700C0000092
S11302504CE361E081E00E94C500C0E6D0E0488143
S1130260598162E081E00E94E0004EE368E081E0B1
S11302700E94C5004A815B8161E082E00E94E00047
S113028080E090E00E945105DF91CF91089581B301
S1130290887F81BB12E6DBE6C6E6809903C0C09383
S11302A0A40009C0819903C0D093A40004C082991A
S11302B0F4CF1093A40061E08091A2009091A30078
S11302C00E94A60562E08091A0009091A1000E9486
S11302D0A605E3CFC1E0D0E014E02FE58AEE90E07C
S11302E0215080409040E1F700C00000E091A5005B
S11302F0E53008F04FC08091A400863611F5EF5F19
S1130300E093A500F0E0EE0FFF1FE05AFF4F40819D
S1130310518162E081E00E94E000E091A500F0E0FC
S1130320EE0FFF1FEE59FF4F4081518161E082E0E3
S11303300E94E0008091A500853061F51093A5002E
S113034029C08236E1F4E150E093A500F0E0EE0F1D
S1130350FF1FE05AFF4F4081518162E081E00E941B
S1130360E000E091A500F0E0EE0FFF1FEE59FF4F13
S11303704081518161E082E00E94E0000BC08B3635
S113038049F42BB3CE0102C0880F991FEA95E2F716
S1130390822B8BBB62E08091A2009091A3000E940B
S11303A0A60561E08091A0009091A1000E94A6059D
S11303B094CFE12CF12C03E020E030E045E550E05F
S11303C060E070E083E091E00E943F040F2EF2EAC7
S11303D0EF2EF0E0FF2EF02D02E020E030E045E5C6
S11303E050E060E070E087E491E00E943F040F2E4B
S11303F0F0EAEF2EF0E0FF2EF02D01E020E030E0F7
S113040045E550E060E070E08AE691E00E943F0438
S11304100E941E06FFCFCF93DF93EC010E94480693
S11304208091A6009091A700892B31F48BEA90E08B
S11304309093A7008093A6002091A8003091A90072
S1130440C9018C0F9D1F873542E0940770F428176B
S1130450390770F4C091A600D091A700C20FD31F32
S11304609093A9008093A80005C0C0E0D0E002C02A
S1130470C0E0D0E00E940D07CE01DF91CF91089536
S11304800895FC010396928381832FEF3FEF348319
S11304902383968385839087878310820895FC0144
S11304A0118610860895CF93DF939C01FB01DC0134
S11304B01196CD91DC911297D383C2838C819D8157
S11304C0958384838C819D81DC0113967C936E9348
S11304D012977D836C8331872087F90180818F5F38
S11304E08083DF91CF910895CF93DF93FC01A085A2
S11304F0B185C281D381848195819D838C83C4819C
S1130500D581828193819B838A8311968D919C915D
S11305101297E817F90731F48481958112969C9318
S11305208E931197118610868C9181508C938C91A7
S1130530DF91CF91089531E1FC013083319722E2BC
S113054020833197A3E3A08331976083319770832D
S113055031971082319760E8608331971082319728
S113056062E06083319763E06083319764E0608385
S1130570319765E06083319766E06083319767E087
S11305806083319768E06083319769E060833197D5
S113059060E1608331973083319732E13083319762
S11305A033E13083319734E13083319735E130835F
S11305B0319736E13083319737E13083319738E131
S11305C03083319739E13083319730E2308331978A
S11305D031E2308331972083319723E220833197AE
S11305E0408331975083319726E22083319727E265
S11305F02083319728E22083319729E220833197A1
S113060020E32083319721E32083869708951BBC40
S11306108EE08ABD8BE08EBD89B7806189BFA091D1
S11306206703B0916803CD91CDBFDD91DEBFFF912B
S1130630EF91DF91CF91BF91AF919F918F917F9176
S11306406F915F914F913F912F911F910F91FF9067
S1130650EF90DF90CF90BF90AF909F908F907F905E
S11306606F905F904F903F902F901F900F900FBE10
S11306700F90089581E008950F920FB6F8940F92A9
S11306801F9211242F923F924F925F926F927F920A
S11306908F929F92AF92BF92CF92DF92EF92FF928E
S11306A00F931F932F933F934F935F936F937F9376
S11306B08F939F93AF93BF93CF93DF93EF93FF9366
S11306C0A0916703B09168030DB60D920EB60D921A
S11306D00E949007A0916703B0916803CD91CDBFAC
S11306E0DD91DEBFFF91EF91DF91CF91BF91AF918B
S11306F09F918F917F916F915F914F913F912F9136
S11307001F910F91FF90EF90DF90CF90BF90AF902B
S11307109F908F907F906F905F904F903F902F901D
S11307201F900F900FBE0F9008950F920FB6F8947C
S11307300F921F9211242F923F924F925F926F92C9
S11307407F928F929F92AF92BF92CF92DF92EF925D
S1130750FF920F931F932F933F934F935F936F9346
S11307607F938F939F93AF93BF93CF93DF93EF9335
S1130770FF93A0916703B09168030DB60D920EB676
S11307800D920E944E0681110E949007A09167036A
S1130790B0916803CD91CDBFDD91DEBFFF91EF91A4
S11307A0DF91CF91BF91AF919F918F917F916F9185
S11307B05F914F913F912F911F910F91FF90EF9077
S11307C0DF90CF90BF90AF909F908F907F906F906D
S11307D05F904F903F902F901F900F900FBE0F90FF
S11307E008950E9495031895E0912F03F09130032A
S11307F08081811107C08FEF9FEF90930603809350
S113080005030895E0912F03F09130030580F681EC
S1130810E02D0680F781E02D828193819093060379
S11308208093050308950BE113E080911A03882354
S1130830E1F30FB6F8940F92D8011596ED91FC915F
S11308401697C681D781CE0102960E9474028091C8
S1130850100381508093100380911A038150809378
S11308601A030F900FBE8F89988D0E944002CE010B
S11308700E94400280911A038111DBCFD6CF4F92A0
S11308805F926F927F928F929F92AF92BF92CF921C
S1130890DF92EF92FF920F93CF93DF934C016B01A2
S11308A05A012901CA010E940B023C01892B09F457
S11308B0E7C086E290E00E940B02EC01892B59F01C
S11308C0788E6F8A81E0A81AB108A60CB71CC114EF
S11308D0D10429F420C0C3010E944002D1C0D60132
S11308E08C91898F8C918823A1F0AE01465E5F4F75
S11308F0F6013196B8E0CB0ED11CCF012191DA017B
S11309002D93AD01DC018C91882319F0EC15FD05C4
S1130910A1F718A201C0198E043008F003E00E8B71
S11309206E01B2E0CB0ED11CC6010E944F02CE0173
S11309300C960E944F02D987C88784E090E0801B00
S113094091099D878C87DB8BCA8B19A21AA21BA2E3
S11309501CA21DA2A201B401C5010E949B0299839D
S11309608883E114F10419F0F701D183C0830FB631
S1130970F8940F92809110038F5F809310038091FD
S1130980670390916803892BD1F5D0936803C093D2
S1130990670380911003813009F041C083E493E040
S11309A00E9441028CE493E00E94410285E593E0B9
S11309B00E9441028EE593E00E9441028AE393E0A3
S11309C00E94410281E393E00E94410284E293E0A9
S11309D00E9441028BE193E00E94410281E193E095
S11309E00E9441028AE393E09093300380932F03A3
S11309F081E393E090932E0380932D0310C08091A4
S1130A000C0381110CC0E0916703F091680396898F
S1130A108E89891720F0D0936803C093670380916F
S1130A2007038F5F809307038E8990910D039817B6
S1130A3010F480930D0390E09C01220F331F220FCA
S1130A40331F220F331F820F931FB6018D5B9C4F00
S1130A500E9453020F900FBE80910C03882361F013
S1130A60E0916703F091680396898E89981730F4B2
S1130A700E943C0381E005C081E003C081E001C025
S1130A808FEFDF91CF910F91FF90EF90DF90CF9098
S1130A90BF90AF909F908F907F906F905F904F909A
S1130AA008950F931F93CF93DF93EC010FB6F8943F
S1130AB00F92892B21F4C0916703D09168038E01B2
S1130AC00E5F1F4FC8010E9474028C899D89892B77
S1130AD021F0CE010C960E947402809107038F5F6F
S1130AE0809307038091670390916803C817D9071F
S1130AF059F4B8018BE193E00E94530280911A03E8
S1130B008F5F80931A030EC08091100381508093ED
S1130B1010038F89988D0E944002CE010E944002EA
S1130B200E94F4030F900FBE80910C03882349F0B8
S1130B308091670390916803C817D90711F40E9444
S1130B403C03DF91CF911F910F910895EF92FF9293
S1130B501F93CF93DF93EC01643008F063E00FB68A
S1130B60F8940F92209721F4C0916703D091680301
S1130B708E89861709F45AC0861788F42091670372
S1130B8030916803C217D307A1F0E0916703F09195
S1130B90680311E09689691768F410E00BC020918E
S1130BA067033091680311E0C217D30719F010E00E
S1130BB001C010E06E8B2C853D85332334F024E096
S1130BC030E0261B31093D872C8790E09C01220FE1
S1130BD0331F220F331F220F331F820F931F8D5B8E
S1130BE09C4F2A853B8528173907E9F47E0182E06A
S1130BF0E80EF11CC7010E9474028E8990910D03C6
S1130C00981710F480930D0390E09C01220F331F7A
S1130C10220F331F220F331F820F931FB7018D5BE7
S1130C209C4F0E94530211110E943C030F900FBE6F
S1130C30DF91CF911F91FF90EF900895EF92FF9273
S1130C400F930F2EF3E0EF2EF3E0FF2EF02D00E0D4
S1130C5020E030E045E550E06AE970E083E194E0AB
S1130C600E943F04813081F4F8948FEF9FEF9093BA
S1130C7006038093050381E080930C0310920F0315
S1130C8010920E030E9407030F91FF90EF900895B6
S1130C90809102038F5F809302030895CF92DF92C5
S1130CA0EF92FF920F931F93CF93DF9380910203F0
S1130CB081119FC0E0900E03F0900F038FEFE81AAC
S1130CC0F80AF0920F03E0920E03E114F104B9F470
S1130CD080912F039091300320912D0330912E03A6
S1130CE03093300320932F0390932E0380932D038E
S1130CF0809108038F5F809308030E94F40380911E
S1130D00050390910603E816F90610F4D12C53C09C
S1130D10D12CCC24C394E0912F03F0913003808133
S1130D20811107C08FEF9FEF909306038093050313
S1130D3042C0E0912F03F09130030580F681E02D4D
S1130D40C681D7818A819B81E816F90628F490939D
S1130D500603809305032FC08E010E5F1F4FC80149
S1130D600E9474028C899D89892B21F0CE010C96F6
S1130D700E9474028E8990910D03981710F4809349
S1130D800D0390E09C01220F331F220F331F220F0B
S1130D90331F820F931FB8018D5B9C4F0E94530237
S1130DA0E0916703F09168039E898689981708F497
S1130DB0B2CFDC2CB0CFE0916703F0916803868951
S1130DC090E0FC01EE0FFF1FEE0FFF1FEE0FFF1F61
S1130DD08E0F9F1FFC01ED5BFC4F8081823010F071
S1130DE0DD24D39480910903882369F0DD24D3940E
S1130DF00AC080910A0390910B03019690930B0310
S1130E0080930A03D12C8D2DDF91CF911F910F91E7
S1130E10FF90EF90DF90CF900895DF92EF92FF92D2
S1130E200F931F93CF93DF930FB6F8940F92809193
S1130E30020381508093020380910203811163C0F5
S1130E4080911003811133C061C0D7011596ED91D3
S1130E50FC911697C681D781CE010C960E9474022C
S1130E608E010E5F1F4FC8010E9474028E899091FB
S1130E700D03981710F480930D0390E09C01220F4A
S1130E80331F220F331F220F331F820F931FB8010A
S1130E908D5B9C4F0E945302E0916703F0916803BD
S1130EA09E898689981768F0D09209030AC0C0E029
S1130EB0D0E00F2EF4E2EF2EF3E0FF2EF02DDD2430
S1130EC0D394F70180818111C0CFCD2B11F00E9402
S1130ED0F403C0910A03D0910B03209761F011E051
S1130EE00E944E068111109309032197C9F71092AD
S1130EF00B0310920A0380910903882331F00E94A6
S1130F003C0381E003C080E001C080E00F900FBE8D
S1130F10DF91CF911F910F91FF90EF90DF90089593
S1130F2080910203882321F081E0809309030895CE
S1130F301092090320910D03822F90E0FC01EE0F23
S1130F40FF1FEE0FFF1FEE0FFF1FE80FF91FED5BF2
S1130F50FC4F3081311111C02150822F90E0FC01EF
S1130F60EE0FFF1FEE0FFF1FEE0FFF1FE80FF91F1D
S1130F70ED5BFC4F3081332379F3AC01440F551FF3
S1130F80440F551F440F551F480F591FDA01AD5B1D
S1130F90BC4F1196ED91FC9112970280F381E02DE4
S1130FA01296FC93EE9311974A5B5C4FE417F50796
S1130FB029F442815381FD0152834183FC01EE0FE8
S1130FC0FF1FEE0FFF1FEE0FFF1F8E0F9F1FFC0171
S1130FD0ED5BFC4F0180F281E02D86819781909337
S1130FE068038093670320930D030895F894FFCF5B
S1130FF077007E0085008C009300000048656C6CCF
S11310006F2052544F53005461736B20310054616C
S1131010736B2032005461736B2033005461736B23
S11310202034005461736B20350049444C45000062
S9030000FC
