S016000072746F732D6D757465782D6C63642E7372656386
S11300000C942A000C9447000C9447000C9447006D
S11300100C9447000C9447000C9447000C949C03E8
S11300200C9447000C9447000C9447000C94470030
S11300300C9447000C9447000C9447000C94470020
S11300400C9447000C9447000C9447000C94470010
S11300500C94470011241FBECFE5D8E0DEBFCDBF0E
S113006010E0A0E6B0E0EAEFF7E102C005900D92DF
S1130070A039B107D9F723E0A0E9B0E001C01D928F
S1130080A535B207E1F70E944F010C94FB0B0C94C9
S11300900000A89A00C0A89800C00895A99818BAAA
S11300A088BB0E9449000895A99A18BA88BB0E9487
S11300B049000895A19AA09A8FEF87BBA998A898A0
S11300C018BA87E893E10197F1F700C0000018BA65
S11300D088E30E944E000E94490085ED96E0019756
S11300E0F1F700C0000018BA88E30E944E000E9495
S11300F049008FE295E70197F1F700C0000018BAB4
S113010088E30E944E000E94490081E00E944E0054
S113011083EC99E00197F1F700C0000082E00E94AF
S11301204E0083EC99E00197F1F700C0000086E0EF
S11301300E944E0083EC99E00197F1F700C00000A3
S11301408DE00E944E0083EC99E00197F1F700C026
S1130150000080E10E944E0083EC99E00197F1F7E2
S113016000C0000086E50E944E0083EC99E00197F0
S1130170F1F700C0000080E80E944E0083EC99E093
S11301800197F1F700C000000895CF93DF93EA01CF
S113019090E4899F600D1124862F815C0E944E009B
S11301A089EF90E00197F1F700C00000888188236F
S11301B061F021960E94540083EC99E00197F1F7D5
S11301C000C0000089918111F5CFDF91CF9108958E
S11301D06FEF7FEF80919000909191000E947A05DB
S11301E081E00E944E0083EC99E00197F1F700C092
S11301F0000040E650E061E081E00E94C5009FE518
S11302002AEE80E0915020408040E1F700C00000D9
S113021020E040E050E060E070E080919000909138
S113022091000E94BF04D4CF8AE090E00E94C509E7
S11302306FEF7FEF80919000909191000E947A057A
S113024081E00E944E0083EC99E00197F1F700C031
S1130250000045E750E061E081E00E94C5009FE3B3
S11302602DE083E0915020408040E1F700C0000081
S113027020E040E050E060E070E0809190009091D8
S113028091000E94BF04D0CF889A88EC90E00E942D
S1130290C509909A80E090E00E94FE07F6CF0E9484
S11302A05A00E12CF12C01E020E030E045E550E07B
S11302B060E070E088EE90E00E94EA0602E020E050
S11302C030E045E550E060E070E084E491E00E94B5
S11302D0EA0603E020E030E045E550E060E070E04D
S11302E084E191E00E94EA0681E00E946005909317
S11302F091008093900020E040E050E060E070E0E6
S11303000E94BF040E945308FFCFCF93DF93EC01F8
S11303100E947D088091920090919300892B31F482
S113032087E990E090939300809392002091940049
S113033030919500C9018C0F9D1F873542E09407C9
S113034070F42817390770F4C0919200D09193008B
S1130350C20FD31F909395008093940005C0C0E012
S1130360D0E002C0C0E0D0E00E944209CE01DF919B
S1130370CF9108950895FC010396928381832FEF12
S11303803FEF34832383968385839087878310820A
S11303900895FC01118610860895CF93DF939C0184
S11303A0FB01DC011196CD91DC911297D383C283BA
S11303B08C819D81958384838C819D81DC0113963E
S11303C07C936E9312977D836C8331872087F90128
S11303D080818F5F8083DF91CF910895CF93DF93E6
S11303E0EB01488159814F3F2FEF520721F4FC0163
S11303F0A781B0850DC0DC01139601C0DF01129600
S1130400ED91FC9113972081318142175307B0F786
S11304101296ED91FC911397FB83EA83D583C483F1
S1130420BD83AC831396DC93CE9312979987888708
S1130430FC0120812F5F2083DF91CF910895CF931A
S1130440DF93FC01A085B185C281D381848195812C
S11304509D838C83C481D581828193819B838A838C
S113046011968D919C911297E817F90731F48481C4
S1130470958112969C938E931197118610868C9178
S113048081508C938C91DF91CF91089531E1FC01DF
S11304903083319722E220833197A3E3A0833197FD
S11304A060833197708331971082319760E860835D
S11304B031971082319762E06083319763E0608303
S11304C0319764E06083319765E06083319766E03B
S11304D06083319767E06083319768E06083319788
S11304E069E06083319760E16083319730833197AD
S11304F032E13083319733E13083319734E1308313
S1130500319735E13083319736E13083319737E1E4
S11305103083319738E13083319739E13083319733
S113052030E23083319731E2308331972083319741
S113053023E220833197408331975083319726E219
S11305402083319727E22083319728E22083319753
S113055029E22083319720E32083319721E320830C
S1130560869708951BBC8EE08ABD8BE08EBD89B74B
S1130570806189BFA0915303B0915403CD91CDBF45
S1130580DD91DEBFFF91EF91DF91CF91BF91AF91EC
S11305909F918F917F916F915F914F913F912F9197
S11305A01F910F91FF90EF90DF90CF90BF90AF908D
S11305B09F908F907F906F905F904F903F902F907F
S11305C01F900F900FBE0F90089581E008950F9231
S11305D00FB6F8940F921F9211242F923F924F92CC
S11305E05F926F927F928F929F92AF92BF92CF92BF
S11305F0DF92EF92FF920F931F932F933F934F93AA
S11306005F936F937F938F939F93AF93BF93CF9396
S1130610DF93EF93FF93A0915303B09154030DB66E
S11306200D920EB60D920E94D909A0915303B09178
S11306305403CD91CDBFDD91DEBFFF91EF91DF91EA
S1130640CF91BF91AF919F918F917F916F915F9166
S11306504F913F912F911F910F91FF90EF90DF9059
S1130660CF90BF90AF909F908F907F906F905F904E
S11306704F903F902F901F900F900FBE0F900895B2
S11306800F920FB6F8940F921F9211242F923F925B
S11306904F925F926F927F928F929F92AF92BF928E
S11306A0CF92DF92EF92FF920F931F932F933F937A
S11306B04F935F936F937F938F939F93AF93BF9366
S11306C0CF93DF93EF93FF93A0915303B09154031F
S11306D00DB60D920EB60D920E94830881110E94F0
S11306E0D909A0915303B0915403CD91CDBFDD91AD
S11306F0DEBFFF91EF91DF91CF91BF91AF919F91B9
S11307008F917F916F915F914F913F912F911F91A5
S11307100F91FF90EF90DF90CF90BF90AF909F909C
S11307208F907F906F905F904F903F902F901F908D
S11307300F900FBE0F9008950E94400318950FB6B6
S1130740F8940F92FC01928D0F900FBE81E09111ED
S113075080E008950F931F93CF93DF93EC01042F50
S11307601A8D4C8D41110CC088819981892B09F017
S113077042C08C819D810E94500B1D821C8242C00C
S1130780011117C050E08A819B810E94F20B2C8DCD
S11307908A819B81820F911D9B838A832C813D8159
S11307A08217930750F1888199819B838A8380E023
S11307B029C050E08E819F810E94F20B8C8D90E0C5
S11307C09195819591092E813F81280F391F3F838F
S11307D02E83488159812417350730F42C813D81BB
S11307E0820F931F9F838E83023049F4112349F0B3
S11307F0115080E007C080E005C080E003C080E0C5
S113080001C080E01F5F1A8FDF91CF911F910F917C
S11308100895EF92FF920F931F93CF938C010FB61D
S1130820F8940F92FC01C68D1C16ACF481898111D9
S113083006C011C0F8018189811105C00CC078017E
S1130840F1E1EF0EF11CC7010E94510A81110E94CF
S1130850DA0AC15079F78FEFF801868F0F900FBE37
S11308600FB6F8940F92C58D1C16ACF480858111D7
S113087006C011C0F8018085811105C00CC0780143
S1130880F8E0EF0EF11CC7010E94510A81110E9489
S1130890DA0AC15079F78FEFF801858F0F900FBEF8
S11308A0CF911F910F91FF90EF900895CF93DF9315
S11308B0EC010FB6F8940F92E881F9818B8D2C8DA1
S11308C090E030E0829FA001839F500D929F500DD5
S11308D011244E0F5F1F5D834C831A8EFB83EA83C2
S11308E00197829FA001839F500D929F500D112468
S11308F0CF01840F951F9F838E838FEF8D8F8E8FF3
S113090061110CC08885882389F0CE0108960E9465
S1130910510A882359F00E94E70208C0CE010896C4
S11309200E94BB01CE0141960E94BB010F900FBEF5
S113093081E0DF91CF9108950F931F93CF93DF93BD
S1130940082F162F869FC00111244F960E948501FF
S1130950EC01009771F0111103C09983888303C0DF
S11309604F96998388830B8F1C8F61E0CE010E9480
S11309705604CE01DF91CF911F910F9108959F925C
S1130980AF92BF92CF92DF92EF92FF920F931F9399
S1130990CF93DF9300D000D01F92CDB7DEB78C0188
S11309A06B015D834C83A22EB12C992493947C011A
S11309B088E0E80EF11C0FB6F8940F92F801928DBE
S11309C0838D981718F0F2E0AF1219C04A2DB601C2
S11309D0C8010E94AA03F8019189992349F0C8012A
S11309E041960E94510A882331F00E94E70203C015
S11309F081110E94E7020F900FBE81E050C08C81EC
S1130A009D81892B21F40F900FBE80E048C0B11066
S1130A1005C0CE0101960E94990AB92C0F900FBE11
S1130A200E947D080FB6F8940F92F801858D8F3FD0
S1130A3009F4158EF801868D8F3F09F4168E0F90F8
S1130A400FBEBE016C5F7F4FCE0101960E94A40AC7
S1130A5081111FC00FB6F8940F92F801928D0F9078
S1130A600FBE838D98130FC06C817D81C7010E94D6
S1130A703F0AC8010E9409040E94420981119BCFC8
S1130A800E94E70298CFC8010E9409040E9442090B
S1130A9092CFC8010E9409040E94420980E00F908D
S1130AA00F900F900F900F90DF91CF911F910F91A6
S1130AB0FF90EF90DF90CF90BF90AF909F900895FC
S1130AC0CF93DF93482F60E081E00E949C04EC0107
S1130AD0009761F01D821C82198218821E8220E018
S1130AE040E050E060E070E00E94BF04CE01DF917E
S1130AF0CF910895BF92CF92DF92EF92FF920F931E
S1130B001F93CF93DF9300D000D01F92CDB7DEB7F1
S1130B108C017D836C83B12CD12CCC24C3947C01B7
S1130B2081E1E80EF11C0FB6F8940F92D8015A96A1
S1130B308C915A978823E9F081505A968C935A974E
S1130B408D919C91892B29F40E94E00BF8019583E7
S1130B508483D80118968C91882339F0C8010896AB
S1130B600E94510A81110E94E7020F900FBE81E09A
S1130B707FC08C819D81892B21F40F900FBE80E072
S1130B8077C0D11005C0CE0101960E94990ADC2CD1
S1130B900F900FBE0E947D080FB6F8940F92F801D3
S1130BA0858D8F3F09F4158ED8015E968C915E97E2
S1130BB08F3F11F45E961C920F900FBEBE016C5FC6
S1130BC07F4FCE0101960E94A40A811129C0C80159
S1130BD00E949F038823F1F0F80180819181892B81
S1130BE051F40FB6F8940F92848195810E94DE0A25
S1130BF0B82E0F900FBE6C817D81C7010E943F0A01
S1130C00C8010E9409040E94420981118CCF0E94EC
S1130C10E70289CFC8010E9409040E94420983CFD8
S1130C20C8010E9409040E944209C8010E949F034E
S1130C30882309F478CFBB20D1F00FB6F8940F9233
S1130C40F8018189882339F00688F789E02D8081AD
S1130C5064E0681B01C060E0D80114968D919C91FA
S1130C6015970E94900B0F900FBE80E001C080E0AA
S1130C700F900F900F900F900F90DF91CF911F91D5
S1130C800F91FF90EF90DF90CF90BF900895E09187
S1130C901B03F0911C038081811107C08FEF9FEF2C
S1130CA09093F2028093F1020895E0911B03F09176
S1130CB01C030580F681E02D0680F781E02D8281FA
S1130CC093819093F2028093F102089507E013E078
S1130CD0809106038823E1F30FB6F8940F92D801AC
S1130CE01596ED91FC911697C681D781CE01029697
S1130CF00E941F028091FC0281508093FC0280912B
S1130D0006038150809306030F900FBE8F89988D40
S1130D100E94BA01CE010E94BA018091060381119A
S1130D20DBCFD6CFFF920F931F93CF93DF93EC01CA
S1130D30F62E0091FA021091FB02809153039091D8
S1130D40540302960E941F02CF3F8FEFD80769F425
S1130D50FF2059F060915303709154036E5F7F4FED
S1130D608DEF92E00E94CD012FC0C00FD11FE09102
S1130D705303F0915403D383C283C017D10768F49B
S1130D8060915303709154038091190390911A0355
S1130D906E5F7F4F0E94EE0117C060915303709104
S1130DA0540380911B0390911C036E5F7F4F0E943C
S1130DB0EE018091F1029091F202C817D90720F454
S1130DC0D093F202C093F102DF91CF911F910F9162
S1130DD0FF9008954F925F926F927F928F929F92AD
S1130DE0AF92BF92CF92DF92EF92FF920F93CF9385
S1130DF0DF934C016B015A012901CA010E9485014C
S1130E003C01892B09F4E9C088E290E00E94850145
S1130E10EC01892B59F0788E6F8A81E0A81AB10809
S1130E206A0C7B1CC114D10429F420C0C3010E94A4
S1130E30BA01D3C0D6018C91898F8C918823A1F0FB
S1130E40AE01465E5F4FF6013196B8E0CB0ED11C81
S1130E50CF012191DA012D93AD01DC018C9188231E
S1130E6019F0EC15FD05A1F718A201C0198E043084
S1130E7008F003E00E8B09A31AA26E01B2E0CB0EB8
S1130E80D11CC6010E94C901CE010C960E94C90161
S1130E90D987C88784E090E0801B91099D878C875F
S1130EA0DB8BCA8B1BA21CA21DA21EA21FA2A20125
S1130EB0B401C3010E94460299838883E114F104BA
S1130EC019F0F701D183C0830FB6F8940F92809183
S1130ED0FC028F5F8093FC02809153039091540332
S1130EE0892BD1F5D0935403C09353038091FC0212
S1130EF0813009F041C08FE293E00E94BB0188E396
S1130F0093E00E94BB0181E493E00E94BB018AE468
S1130F1093E00E94BB0186E293E00E94BB018DE155
S1130F2093E00E94BB0180E193E00E94BB0187E053
S1130F3093E00E94BB018DEF92E00E94BB0186E228
S1130F4093E090931C0380931B038DE193E09093B3
S1130F501A038093190310C08091F80281110CC008
S1130F60E0915303F091540396898E89891720F0F8
S1130F70D0935403C09353038091F3028F5F809303
S1130F80F3028E899091F902981710F48093F90274
S1130F9090E09C01220F331F220F331F220F331FB7
S1130FA0820F931FB601815D9C4F0E94CD010F906B
S1130FB00FBE8091F802882361F0E0915303F09111
S1130FC0540396898E89981730F40E94E70281E0D1
S1130FD005C081E003C081E001C08FEFDF91CF91B4
S1130FE00F91FF90EF90DF90CF90BF90AF909F90C4
S1130FF08F907F906F905F904F9008950F931F9301
S1131000CF93DF93EC010FB6F8940F92892B21F460
S1131010C0915303D09154038E010E5F1F4FC8013A
S11310200E941F028C899D89892B21F0CE010C9688
S11310300E941F028091F3028F5F8093F3028091DC
S1131040530390915403C817D90759F4B80187E0A2
S113105093E00E94CD01809106038F5F8093060385
S11310600EC08091FC0281508093FC028F89988D80
S11310700E94BA01CE010E94BA010E9447060F9055
S11310800FBE8091F802882349F080915303909118
S11310905403C817D90711F40E94E702DF91CF91D6
S11310A01F910F910895EF92FF920F930F2EFFEE71
S11310B0EF2EF2E0FF2EF02D00E020E030E045E5D9
S11310C050E06BE870E086E696E00E94EA06813024
S11310D081F4F8948FEF9FEF9093F2028093F102E2
S11310E081E08093F8021092FB021092FA020E94AF
S11310F0B2020F91FF90EF9008958091EE028F5FFE
S11311008093EE020895CF92DF92EF92FF920F93B5
S11311101F93CF93DF938091EE0281119FC0E090E3
S1131120FA02F090FB028FEFE81AF80AF092FB0241
S1131130E092FA02E114F104B9F480911B03909156
S11311401C032091190330911A0330931C0320933C
S11311501B0390931A03809319038091F4028F5F09
S11311608093F4020E9447068091F1029091F2026A
S1131170E816F90610F4D12C53C0D12CCC24C39416
S1131180E0911B03F0911C038081811107C08FEF54
S11311909FEF9093F2028093F10242C0E0911B030F
S11311A0F0911C030580F681E02DC681D7818A81E8
S11311B09B81E816F90628F49093F2028093F102D9
S11311C02FC08E010E5F1F4FC8010E941F028C8921
S11311D09D89892B21F0CE010C960E941F028E89D5
S11311E09091F902981710F48093F90290E09C0111
S11311F0220F331F220F331F220F331F820F931F1F
S1131200B801815D9C4F0E94CD01E0915303F091A0
S113121054039E898689981708F4B2CFDC2CB0CF8A
S1131220E0915303F0915403868990E0FC01EE0FA2
S1131230FF1FEE0FFF1FEE0FFF1F8E0F9F1FFC01FE
S1131240E15DFC4F8081823010F0DD24D3948091E5
S1131250F502882369F0DD24D3940AC08091F60254
S11312609091F70201969093F7028093F602D12CA5
S11312708D2DDF91CF911F910F91FF90EF90DF9013
S1131280CF900895DF92EF92FF920F931F93CF9325
S1131290DF930FB6F8940F928091EE028150809301
S11312A0EE028091EE02811163C08091FC028111F3
S11312B033C061C0D7011596ED91FC911697C68194
S11312C0D781CE010C960E941F028E010E5F1F4F24
S11312D0C8010E941F028E899091F902981710F498
S11312E08093F90290E09C01220F331F220F331FD9
S11312F0220F331F820F931FB801815D9C4F0E9400
S1131300CD01E0915303F09154039E898689981787
S113131068F0D092F5020AC0C0E0D0E00F2EF0E1F0
S1131320EF2EF3E0FF2EF02DDD24D394F70180811E
S11313308111C0CFCD2B11F00E944706C091F60257
S1131340D091F702209761F011E00E948308811187
S11313501093F5022197C9F71092F7021092F60242
S11313608091F502882331F00E94E70281E003C0F6
S113137080E001C080E00F900FBEDF91CF911F91FC
S11313800F91FF90EF90DF900895CF93DF93EC01DE
S1131390892B51F00E947D0860E0CE010E949206E4
S11313A00E944209811102C00E94E702DF91CF919D
S11313B008958091EE02882321F081E08093F50264
S11313C008951092F5022091F902822F90E0FC0119
S11313D0EE0FFF1FEE0FFF1FEE0FFF1FE80FF91FA9
S11313E0E15DFC4F3081311111C02150822F90E01A
S11313F0FC01EE0FFF1FEE0FFF1FEE0FFF1FE80FA4
S1131400F91FE15DFC4F3081332379F3AC01440FC4
S1131410551F440F551F440F551F480F591FDA011C
S1131420A15DBC4F1196ED91FC9112970280F3815E
S1131430E02D1296FC93EE9311974E5C5C4FE417EB
S1131440F50729F442815381FD0152834183FC0154
S1131450EE0FFF1FEE0FFF1FEE0FFF1F8E0F9F1FDC
S1131460FC01E15DFC4F0180F281E02D86819781D2
S113147090935403809353032093F9020895CF93D8
S1131480DF93EB016091530370915403645F7F4FCA
S11314900E94EE0161E0CE010E949206DF91CF919D
S11314A008950F931F93CF93DF93DC011596ED916D
S11314B0FC911697C681D7818E01045F1F4FC80126
S11314C00E941F028091EE0281111CC00A50110972
S11314D0C8010E941F028E899091F902981710F496
S11314E08093F90290E09C01220F331F220F331FD7
S11314F0220F331F820F931FB801815D9C4F0E94FE
S1131500CD0105C0B80180E193E00E94CD01E091D6
S11315105303F09154039E898689891720F481E04E
S11315208093F50201C080E0DF91CF911F910F916C
S113153008952091F402FC0120832091FA02309155
S1131540FB02328321830895CF93DF930FB6F8947F
S11315500F922091FA023091FB02DB014D915C91D4
S11315604F3FBFEF5B07F1F0EC01E981FA81A091F5
S1131570F402B881BA1719F02E173F07A8F42E1BEE
S11315803F0B2417350748F4FB01421B530B5183CF
S113159040830E94990A80E008C0FB0111821082F6
S11315A081E003C080E001C081E00F900FBEDF91B5
S11315B0CF91089581E08093F50208950F931F93CE
S11315C0CF93DF93FC01892B09F464C02689A09191
S11315D05303B091540356968C91281708F04EC0CB
S11315E084859585992364F0A0915303B0915403A5
S11315F056963C9184E090E0831B910995878487FB
S113160030E0C901880F991F880F991F880F991F0F
S1131610280F391F215D3C4F8285938582179307DC
S113162021F58F01EF012296CE010E941F02E09165
S11316305303F09154038689F801868B9091F90243
S1131640981710F48093F90290E09C01220F331F45
S1131650220F331F220F331F820F931FBE01815DA0
S11316609C4F0E94CD0181E016C0A0915303B0911C
S1131670540356968C91868B81E00DC0A091530340
S1131680B091540381E021A156969C91291718F03A
S113169080E001C080E0DF91CF911F910F91089508
S11316A00F931F93CF93DF93FC01892B79F182A1D0
S11316B0815082A3268991A1291751F181112AC051
S11316C0EF018F010E5F1F4FC8010E941F0289A105
S11316D08E8B24E030E0281B31093D872C879091C4
S11316E0F902981710F48093F90290E09C01220FFC
S11316F0331F220F331F220F331F820F931FB80192
S1131700815D9C4F0E94CD0181E005C080E003C053
S113171080E001C080E0DF91CF911F910F91089587
S11317200F931F93CF93DF93FC01892B09F443C0DC
S113173091A1961708F4962F86898917E1F122A1C1
S11317402130C9F5968B24853585332334F024E084
S113175030E0291B31093587248790E09C01220F52
S1131760331F220F331F220F331F820F931F815DFC
S11317709C4F2285338528173907E9F4EF018F013F
S11317800E5F1F4FC8010E941F028E899091F902BB
S1131790981710F48093F90290E09C01220F331FF4
S11317A0220F331F220F331F820F931FB801815D55
S11317B09C4F0E94CD01DF91CF911F910F9108950D
S11317C08091530390915403892B39F0E091530392
S11317D0F091540382A18F5F82A38091530390916F
S11317E054030895FB01DC0102C001900D924150A5
S10D17F05040D8F70895F894FFCF95
S11317FA6C6F77657374207072696F72697479207B
S113180A7461736B006869676865737420707269C0
S113181A6F72697479207461736B0049444C450092
S9030000FC
