S01D00004E6F74696669636174696F6E46756E6374696F6E732E7372656367
S11300000C942A000C947F010C9447000C94470034
S11300100C9447000C9447000C9447000C94DF02A6
S11300200C9447000C9447000C9447000C94470030
S11300300C9447000C9447000C9447000C94470020
S11300400C9447000C9447000C9447000C94470010
S11300500C94470011241FBECFE5D8E0DEBFCDBF0E
S113006010E0A0E6B0E0E6E2FFE002C005900D92E9
S1130070A636B107D9F723E0A6E6B0E001C01D9289
S1130080AB32B207E1F70E9451010C9491070C9432
S11300900000CF93DF93EC010E94CD0480916600B1
S11300A090916700892B31F48BE690E09093670080
S11300B0809366002091680030916900C9018C0F1B
S11300C09D1F873542E0940770F42817390770F4B0
S11300D0C0916600D0916700C20FD31F909369004E
S11300E08093680005C0C0E0D0E002C0C0E0D0E06A
S11300F00E949205CE01DF91CF9108950895FC01ED
S11301000396928381832FEF3FEF34832383968377
S113011085839087878310820895FC011186108659
S11301200895CF93DF939C01FB01DC011196CD91DF
S1130130DC911297D383C2838C819D8195838483C0
S11301408C819D81DC0113967C936E9312977D8341
S11301506C8331872087F90180818F5F8083DF91F1
S1130160CF910895CF93DF93EB01488159814F3F9D
S11301702FEF520721F4FC01A781B0850DC0DC01EB
S1130180139601C0DF011296ED91FC911397208123
S1130190318142175307B0F71296ED91FC911397F2
S11301A0FB83EA83D583C483BD83AC831396DC933A
S11301B0CE93129799878887FC0120812F5F208333
S11301C0DF91CF910895CF93DF93FC01A085B18592
S11301D0C281D381848195819D838C83C481D5819F
S11301E0828193819B838A8311968D919C9112972E
S11301F0E817F90731F48481958112969C938E93C4
S11302001197118610868C9181508C938C91DF917B
S1130210CF910895CF93DF9300D000D0CDB7DEB750
S1130220DD24D394EE24EA94FE2C8E010F5F1F4F3D
S113023023E030E040E050E060E070E0CB010E9459
S11302408F0689819A81AB81BC810197A105B10593
S113025049F782B38D2582BBE5CF00E010E021E0B1
S113026041E050E060E070E08091C2029091C302EE
S11302700E94130788EC90E00E941506EECF00E080
S113028010E021E042E050E060E070E08091C202C2
S11302909091C3020E94130788EE93E00E94150612
S11302A0EECF8FEF81BB81E084BB0F2EF2ECEF2EFB
S11302B0F2E0FF2EF02D01E020E030E040E550E0D8
S11302C060E070E08AE091E00E949103E12CF12C5F
S11302D020E030E040E550E060E070E08DE291E045
S11302E00E94910320E030E040E550E060E070E0DF
S11302F08FE391E00E9491030E94A304FFCF1F9219
S11303000F920FB60F9211240F900FBE0F901F90F3
S1130310189531E1FC013083319722E22083319733
S1130320A3E3A08331976083319770833197108260
S1130330319760E8608331971082319762E060837F
S1130340319763E06083319764E06083319765E0BF
S11303506083319766E06083319767E0608331970B
S113036068E06083319769E06083319760E160837E
S113037031973083319732E13083319733E13083E1
S1130380319734E13083319735E13083319736E169
S11303903083319737E13083319738E130833197B7
S11303A039E13083319730E23083319731E2308361
S11303B031972083319723E220833197408331970B
S11303C05083319726E22083319727E220833197A7
S11303D028E22083319729E22083319720E3208388
S11303E0319721E32083869708951BBC8CE78ABD4F
S11303F08BE08EBD89B7806189BFA0912903B0913C
S11304002A03CD91CDBFDD91DEBFFF91EF91DF9146
S1130410CF91BF91AF919F918F917F916F915F9198
S11304204F913F912F911F910F91FF90EF90DF908B
S1130430CF90BF90AF909F908F907F906F905F9080
S11304404F903F902F901F900F900FBE0F900895E4
S113045081E008950F920FB6F8940F921F92112421
S11304602F923F924F925F926F927F928F929F92C0
S1130470AF92BF92CF92DF92EF92FF920F931F93AE
S11304802F933F934F935F936F937F938F939F9398
S1130490AF93BF93CF93DF93EF93FF93A09129037F
S11304A0B0912A030DB60D920EB60D920E94290644
S11304B0A0912903B0912A03CD91CDBFDD91DEBF78
S11304C0FF91EF91DF91CF91BF91AF919F918F9168
S11304D07F916F915F914F913F912F911F910F9158
S11304E0FF90EF90DF90CF90BF90AF909F908F9050
S11304F07F906F905F904F903F902F901F900F9040
S11305000FBE0F9008950F920FB6F8940F921F929A
S113051011242F923F924F925F926F927F928F920B
S11305209F92AF92BF92CF92DF92EF92FF920F937E
S11305301F932F933F934F935F936F937F938F9367
S11305409F93AF93BF93CF93DF93EF93FF93A091C8
S11305502903B0912A030DB60D920EB60D920E9496
S1130560D30481110E942906A0912903B0912A0382
S1130570CD91CDBFDD91DEBFFF91EF91DF91CF91A2
S1130580BF91AF919F918F917F916F915F914F91A7
S11305903F912F911F910F91FF90EF90DF90CF909B
S11305A0BF90AF909F908F907F906F905F904F908F
S11305B03F902F901F900F900FBE0F9008950E94B0
S11305C083021895E091F102F091F2028081811189
S11305D007C08FEF9FEF9093C8028093C7020895DE
S11305E0E091F102F091F2020580F681E02D06809F
S11305F0F781E02D828193819093C8028093C70292
S113060008950DED12E00F2EF5E0EF2EF3E0FF2E2E
S1130610F02D8091DC02882329F10FB6F8940F9213
S1130620D8011596ED91FC911697C681D781CE011C
S113063002960E94E3008091D20281508093D202FC
S11306408091DC0281508093DC020F900FBE8F8971
S1130650988D0E947E00CE010E947E008091DC0273
S11306608111DBCFF7018081823098F20E942A0247
S1130670D0CFFF920F931F93CF93DF93EC01F62E0D
S11306800091D0021091D1028091290390912A0304
S113069002960E94E300CF3F8FEFD80769F4FF2052
S11306A059F06091290370912A036E5F7F4F83EDA7
S11306B092E00E9491002FC0C00FD11FE091290346
S11306C0F0912A03D383C283C017D10768F46091E1
S11306D0290370912A038091EF029091F0026E5FDA
S11306E07F4F0E94B20017C06091290370912A03C2
S11306F08091F1029091F2026E5F7F4F0E94B200EE
S11307008091C7029091C802C817D90720F4D093EA
S1130710C802C093C702DF91CF911F910F91FF9040
S113072008954F925F926F927F928F929F92AF92B1
S1130730BF92CF92DF92EF92FF920F93CF93DF930A
S11307404C016B015A012901CA010E9449003C0174
S1130750892B09F4E7C086E290E00E944900EC018D
S1130760892B59F0788E6F8A81E0A81AB108A60CFB
S1130770B71CC114D10429F420C0C3010E947E0017
S1130780D1C0D6018C91898F8C918823A1F0AE01C0
S1130790465E5F4FF6013196B8E0CB0ED11CCF0117
S11307A02191DA012D93AD01DC018C91882319F09C
S11307B0EC15FD05A1F718A201C0198E043008F04C
S11307C003E00E8B6E01B2E0CB0ED11CC6010E9479
S11307D08D00CE010C960E948D00D987C88784E0D5
S11307E090E0801B91099D878C87DB8BCA8B19A2B3
S11307F01AA21BA21CA21DA2A201B401C5010E943F
S1130800890199838883E114F10419F0F701D183F4
S1130810C0830FB6F8940F928091D2028F5F8093B9
S1130820D2028091290390912A03892BD1F5D09388
S11308302A03C09329038091D202813009F041C078
S113084085E093E00E947F008EE093E00E947F00A9
S113085087E193E00E947F0080E293E00E947F00A2
S11308608CEF92E00E947F0083EF92E00E947F0071
S113087086EE92E00E947F008DED92E00E947F0060
S113088083ED92E00E947F008CEF92E09093F2025D
S11308908093F10283EF92E09093F0028093EF0251
S11308A010C08091CE0281110CC0E0912903F09117
S11308B02A0396898E89891720F0D0932A03C0933E
S11308C029038091C9028F5F8093C9028E89909118
S11308D0CF02981710F48093CF0290E09C01220F6E
S11308E0331F220F331F220F331F820F931FB601B2
S11308F08B5F9C4F0E9491000F900FBE8091CE029F
S1130900882361F0E0912903F0912A0396898E8966
S1130910981730F40E942A0281E005C081E003C0E8
S113092081E001C08FEFDF91CF910F91FF90EF90A5
S1130930DF90CF90BF90AF909F908F907F906F90FB
S11309405F904F900895EF92FF920F930F2EF5EC66
S1130950EF2EF2E0FF2EF02D00E020E030E045E540
S113096050E060E670E081E093E00E949103813002
S113097081F4F8948FEF9FEF9093C8028093C7029D
S113098081E08093CE021092D1021092D0020E9494
S1130990F5010F91FF90EF9008958091C4028F5F4D
S11309A08093C4020895CF92DF92EF92FF920F9347
S11309B01F93CF93DF938091C40281119FC0E09075
S11309C0D002F090D1028FEFE81AF80AF092D10227
S11309D0E092D002E114F104B9F48091F102909113
S11309E0F2022091EF023091F0023093F202209350
S11309F0F1029093F0028093EF028091CA028F5F1C
S1130A008093CA020E94E2028091C7029091C802B8
S1130A10E816F90610F4D12C53C0D12CCC24C3947D
S1130A20E091F102F091F2028081811107C08FEF11
S1130A309FEF9093C8028093C70242C0E091F102F5
S1130A40F091F2020580F681E02DC681D7818A817A
S1130A509B81E816F90628F49093C8028093C70294
S1130A602FC08E010E5F1F4FC8010E94E3008C89C6
S1130A709D89892B21F0CE010C960E94E3008E897A
S1130A809091CF02981710F48093CF0290E09C01CC
S1130A90220F331F220F331F220F331F820F931F86
S1130AA0B8018B5F9C4F0E949100E0912903F09163
S1130AB02A039E898689981708F4B2CFDC2CB0CF1C
S1130AC0E0912903F0912A03868990E0FC01EE0F5E
S1130AD0FF1FEE0FFF1FEE0FFF1F8E0F9F1FFC0166
S1130AE0EB5FFC4F8081823010F0DD24D394809141
S1130AF0CB02882369F0DD24D3940AC08091CC0210
S1130B009091CD0201969093CD028093CC02D12C8A
S1130B108D2DDF91CF911F910F91FF90EF90DF907A
S1130B20CF900895DF92EF92FF920F931F93CF938C
S1130B30DF930FB6F8940F928091C4028150809392
S1130B40C4028091C402811163C08091D2028111D8
S1130B5033C061C0D7011596ED91FC911697C681FB
S1130B60D781CE010C960E94E3008E010E5F1F4FC9
S1130B70C8010E94E3008E899091CF02981710F467
S1130B808093CF0290E09C01220F331F220F331F6A
S1130B90220F331F820F931FB8018B5F9C4F0E945B
S1130BA09100E0912903F0912A039E898689981780
S1130BB068F0D092CB020AC0C0E0D0E00F2EF6EE6F
S1130BC0EF2EF2E0FF2EF02DDD24D394F701808187
S1130BD08111C0CFCD2B11F00E94E202C091CC0252
S1130BE0D091CD02209761F011E00E94D3048111CD
S1130BF01093CB022197C9F71092CD021092CC0228
S1130C008091CB02882331F00E942A0281E003C044
S1130C1080E001C080E00F900FBEDF91CF911F9163
S1130C200F91FF90EF90DF900895CF93DF93EC0145
S1130C30892B51F00E94CD0460E0CE010E9439035B
S1130C400E949205811102C00E942A02DF91CF9175
S1130C5008958091C402882321F081E08093CB021F
S1130C6008951092CB022091CF02822F90E0FC01D4
S1130C70EE0FFF1FEE0FFF1FEE0FFF1FE80FF91F10
S1130C80EB5FFC4F3081311111C02150822F90E075
S1130C90FC01EE0FFF1FEE0FFF1FEE0FFF1FE80F0B
S1130CA0F91FEB5FFC4F3081332379F3AC01440F20
S1130CB0551F440F551F440F551F480F591FDA0184
S1130CC0AB5FBC4F1196ED91FC9112970280F381BA
S1130CD0E02D1296FC93EE931197485F5C4FE41756
S1130CE0F50729F442815381FD0152834183FC01BC
S1130CF0EE0FFF1FEE0FFF1FEE0FFF1F8E0F9F1F44
S1130D00FC01EB5FFC4F0180F281E02D868197812D
S1130D1090932A03809329032093CF0208954F923E
S1130D205F926F927F928F929F92AF92BF92EF9257
S1130D30FF920F931F9349015A010FB6F8940F9233
S1130D40E0912903F0912A0325A1223029F1E091B1
S1130D502903F0912A0341A052A063A074A0DC01EE
S1130D60CB0180959095A095B09584219521A621DD
S1130D70B72181A392A3A3A3B4A3E0912903F09183
S1130D802A0381E085A3E114F10431F061E0C70195
S1130D900E9439030E942A020F900FBE0FB6F894E6
S1130DA00F920115110569F0E0912903F0912A03CE
S1130DB081A192A1A3A1B4A1F80180839183A2830C
S1130DC0B383E0912903F0912A0385A18230B1F421
S1130DD0E0912903F0912A0381A192A1A3A1B4A1D6
S1130DE080949094A094B09488229922AA22BB2241
S1130DF081A292A2A3A2B4A281E001C080E0E0910A
S1130E002903F0912A0315A20F900FBE1F910F9191
S1130E10FF90EF90BF90AF909F908F907F906F90D6
S1130E205F904F9008950F931F93CF93DF93FC012E
S1130E300FB6F8940F920115110549F081A192A102
S1130E40A3A1B4A1E80188839983AA83BB8385A164
S1130E5092E095A32230B1F018F4213031F02AC089
S1130E602330E9F0243001F125C001A112A123A10E
S1130E7034A1402B512B622B732B41A352A363A3A8
S1130E8074A318C041A152A163A174A14F5F5F4F25
S1130E906F4F7F4F41A352A363A374A30BC041A31D
S1130EA052A363A374A306C0823079F141A352A371
S1130EB063A374A3813059F5EF018F010E5F1F4FB7
S1130EC0C8010E94E3008E899091CF02981710F414
S1130ED08093CF0290E09C01220F331F220F331F17
S1130EE0220F331F820F931FB8018B5F9C4F0E9408
S1130EF09100E0912903F0912A039E89868989173C
S1130F0040F40E942A0281E005C080E003C081E031
S1130F1001C081E00F900FBEDF91CF911F910F911F
S1090F200895F894FFCFD0
S1090F2649444C450000A3
S9030000FC
