:100000000C942A000C9447000C9447000C94470071
:100010000C9447000C9447000C9447000C94BE03CA
:100020000C9447000C9447000C9447000C94470034
:100030000C9447000C9447000C9447000C94470024
:100040000C9447000C9447000C9447000C94470014
:100050000C94470011241FBECFE5D8E0DEBFCDBF12
:1000600010E0A0E6B0E0E0EBFFE002C005900D92EA
:10007000A636B107D9F723E0A6E6B0E001C01D928D
:10008000AB32B207E1F70E9445020C94D6070C94FC
:100090000000CF93DF938BE090E00E945201EC01CF
:1000A000009731F0FC0111921192CF010E9488015A
:1000B000CE01DF91CF910895AF92BF92CF92DF92A0
:1000C000EF92FF920F931F93CF93DF937C016B010D
:1000D000A42EB22E0E94AC05F701C081D181B110CF
:1000E00008C081E09E012C213D21232B51F480E0AA
:1000F00008C081E09E012C213D212C153D0509F011
:1001000080E0882361F0AA2009F450C0B601609510
:1001100070956C237D23F7017183608347C00115BF
:10012000110509F443C0AA2019F060E071E002C093
:1001300060E070E0B11074606C297D29A801C701EE
:1001400002960E946E070E947106811102C00E94F1
:1001500009030E94BF0791FD26C00FB6F8940F92C5
:10016000F70180819181B11008C021E0A6014823E8
:100170005923452B51F420E008C021E0A601482373
:1001800059234C155D0509F020E0222351F0AA20E7
:1001900041F0B6016095709568237923F70171836A
:1001A00060830F900FBEEC01DD2702C00E94710634
:1001B000CE01DF91CF911F910F91FF90EF90DF90D3
:1001C000CF90BF90AF900895AF92BF92CF92DF9241
:1001D000EF92FF920F931F93CF93DF937C018B01DC
:1001E000EC0125960E94AC05D7011796ED91FC9184
:1001F00018978D919C911197082B192B0D931C9397
:10020000CE17DF07A1F100E010E0BB24B394A12CCE
:10021000C280D380808191819C01332792FD0AC0E6
:10022000D7016D917C91622373234B2D672B61F471
:100230004A2D0AC0D7016D917C91622373234B2D07
:100240006217730709F04A2D442359F090FF02C04A
:10025000022B132BD7016D917C917260CF010E940C
:100260008707EC2DFD2DCE17DF0791F602C000E0C9
:1002700010E000951095F7018081918108231923E2
:10028000118300830E947106D7018D919C91DF91AB
:10029000CF911F910F91FF90EF90DF90CF90BF9083
:1002A000AF900895CF93DF93EC010E94AC0580914D
:1002B000660090916700892B31F48BE690E0909373
:1002C0006700809366002091680030916900C90141
:1002D0008C0F9D1F873542E0940770F4281739076B
:1002E00070F4C0916600D0916700C20FD31F909345
:1002F00069008093680005C0C0E0D0E002C0C0E0A3
:10030000D0E00E947106CE01DF91CF91089508954B
:10031000FC010396928381832FEF3FEF3483238385
:10032000968385839087878310820895FC011186C8
:1003300010860895CF93DF939C01FB01DC01119699
:10034000CD91DC911297D383C2838C819D8195835B
:1003500084838C819D81DC0113967C936E9312972C
:100360007D836C8331872087F90180818F5F808353
:10037000DF91CF910895CF93DF93EB0148815981AD
:100380004F3F2FEF520721F4FC01A781B0850DC02C
:10039000DC01139601C0DF011296ED91FC911397D9
:1003A0002081318142175307B0F71296ED91FC91ED
:1003B0001397FB83EA83D583C483BD83AC831396F1
:1003C000DC93CE93129799878887FC0120812F5F59
:1003D0002083DF91CF910895CF93DF93FC01A08517
:1003E000B185C281D381848195819D838C83C481B1
:1003F000D581828193819B838A8311968D919C9173
:100400001297E817F90731F48481958112969C932D
:100410008E931197118610868C9181508C938C91BC
:10042000DF91CF91089561E070E080912903909170
:100430002A030E94E40088EC90E00E94F40662E047
:1004400070E08091290390912A030E94E40088ECD7
:1004500090E00E94F406E7CFC2E00FEF1FEF20E02C
:1004600041E063E070E08091290390912A030E94AB
:100470005C0080FF04C022B391E0922792BB81FF11
:10048000ECCF82B38C2782BBE8CF83E081BB0E9494
:10049000490090932A0380932903E12CF12C01E079
:1004A00020E030E040E550E060E070E083E192E081
:1004B0000E94700402E020E030E040E550E060E09F
:1004C00070E08CE292E00E9470040E948205FFCFEF
:1004D00031E1FC013083319722E220833197A3E39D
:1004E000A083319760833197708331971082319761
:1004F00060E8608331971082319762E060833197C2
:1005000063E06083319764E06083319765E06083E6
:10051000319766E06083319767E06083319768E0E8
:100520006083319769E06083319760E16083319740
:100530003083319732E13083319733E13083319723
:1005400034E13083319735E13083319736E13083C0
:10055000319737E13083319738E13083319739E192
:100560003083319730E23083319731E230833197F5
:100570002083319723E22083319740833197508342
:10058000319726E22083319727E22083319728E2B2
:100590002083319729E22083319720E3208331970C
:1005A00021E32083869708951BBC8CE78ABD8BE0EE
:1005B0008EBD89B7806189BFA0912703B0912803C0
:1005C000CD91CDBFDD91DEBFFF91EF91DF91CF9156
:1005D000BF91AF919F918F917F916F915F914F915B
:1005E0003F912F911F910F91FF90EF90DF90CF904F
:1005F000BF90AF909F908F907F906F905F904F9043
:100600003F902F901F900F900FBE0F90089581E0A4
:1006100008950F920FB6F8940F921F9211242F9203
:100620003F924F925F926F927F928F929F92AF9282
:10063000BF92CF92DF92EF92FF920F931F932F936F
:100640003F934F935F936F937F938F939F93AF935A
:10065000BF93CF93DF93EF93FF93A0912703B091C4
:1006600028030DB60D920EB60D920E940807A091B8
:100670002703B0912803CD91CDBFDD91DEBFFF915F
:10068000EF91DF91CF91BF91AF919F918F917F912A
:100690006F915F914F913F912F911F910F91FF901B
:1006A000EF90DF90CF90BF90AF909F908F907F9012
:1006B0006F905F904F903F902F901F900F900FBEC4
:1006C0000F9008950F920FB6F8940F921F92112475
:1006D0002F923F924F925F926F927F928F929F9252
:1006E000AF92BF92CF92DF92EF92FF920F931F9340
:1006F0002F933F934F935F936F937F938F939F932A
:10070000AF93BF93CF93DF93EF93FF93A091270312
:10071000B09128030DB60D920EB60D920E94B2054F
:1007200081110E940807A0912703B0912803CD9161
:10073000CDBFDD91DEBFFF91EF91DF91CF91BF91F2
:10074000AF919F918F917F916F915F914F913F9169
:100750002F911F910F91FF90EF90DF90CF90BF905E
:10076000AF909F908F907F906F905F904F903F9051
:100770002F901F900F900FBE0F9008950E9462035C
:100780001895E091EF02F091F0028081811107C08D
:100790008FEF9FEF9093C6028093C5020895E0917A
:1007A000EF02F091F0020580F681E02D0680F781DE
:1007B000E02D828193819093C6028093C5020895B3
:1007C0000BED12E00F2EF3E0EF2EF3E0FF2EF02DF5
:1007D0008091DA02882329F10FB6F8940F92D8019C
:1007E0001596ED91FC911697C681D781CE010296A0
:1007F0000E94EC018091D00281508093D0028091C0
:10080000DA0281508093DA020F900FBE8F89988DA3
:100810000E948701CE010E9487018091DA02811136
:10082000DBCFF7018081823098F20E940903D0CF9C
:10083000FF920F931F93CF93DF93EC01F62E00915D
:10084000CE021091CF028091270390912803029647
:100850000E94EC01CF3F8FEFD80769F4FF2059F0D9
:1008600060912703709128036E5F7F4F81ED92E0C6
:100870000E949A012FC0C00FD11FE0912703F09171
:100880002803D383C283C017D10768F4609127037C
:10089000709128038091ED029091EE026E5F7F4F80
:1008A0000E94BB0117C060912703709128038091BB
:1008B000EF029091F0026E5F7F4F0E94BB0180912A
:1008C000C5029091C602C817D90720F4D093C6027A
:1008D000C093C502DF91CF911F910F91FF900895B2
:1008E0004F925F926F927F928F929F92AF92BF9240
:1008F000CF92DF92EF92FF920F93CF93DF934C0151
:100900006B015A012901CA010E9452013C01892B45
:1009100009F4E7C086E290E00E945201EC01892BC5
:1009200059F0788E6F8A81E0A81AB108A60CB71C1E
:10093000C114D10429F420C0C3010E948701D1C091
:10094000D6018C91898F8C918823A1F0AE01465EEF
:100950005F4FF6013196B8E0CB0ED11CCF0121914B
:10096000DA012D93AD01DC018C91882319F0EC158F
:10097000FD05A1F718A201C0198E043008F003E0AC
:100980000E8B6E01B2E0CB0ED11CC6010E94960107
:10099000CE010C960E949601D987C88784E090E02A
:1009A000801B91099D878C87DB8BCA8B19A21AA2A9
:1009B0001BA21CA21DA2A201B401C5010E946802D3
:1009C00099838883E114F10419F0F701D183C0837E
:1009D0000FB6F8940F928091D0028F5F8093D0026F
:1009E0008091270390912803892BD1F5D093280378
:1009F000C09327038091D002813009F041C083E089
:100A000093E00E9488018CE093E00E94880185E1D8
:100A100093E00E9488018EE193E00E9488018AEFB2
:100A200092E00E94880181EF92E00E94880184EEAA
:100A300092E00E9488018BED92E00E94880181ED96
:100A400092E00E9488018AEF92E09093F0028093F6
:100A5000EF0281EF92E09093EE028093ED0210C0DE
:100A60008091CC0281110CC0E0912703F091280302
:100A700096898E89891720F0D0932803C093270385
:100A80008091C7028F5F8093C7028E899091CD02BB
:100A9000981710F48093CD0290E09C01220F331F31
:100AA000220F331F220F331F820F931FB6018D5F5A
:100AB0009C4F0E949A010F900FBE8091CC02882318
:100AC00061F0E0912703F091280396898E899817A9
:100AD00030F40E94090381E005C081E003C081E099
:100AE00001C08FEFDF91CF910F91FF90EF90DF90DA
:100AF000CF90BF90AF909F908F907F906F905F90BE
:100B00004F900895EF92FF920F930F2EF3ECEF2E7C
:100B1000F2E0FF2EF02D00E020E030E045E550E06F
:100B200060E670E080EE93E00E947004813081F412
:100B3000F8948FEF9FEF9093C6028093C50281E0F7
:100B40008093CC021092CF021092CE020E94D40267
:100B50000F91FF90EF9008958091C2028F5F809374
:100B6000C2020895CF92DF92EF92FF920F931F93EC
:100B7000CF93DF938091C20281119FC0E090CE029B
:100B8000F090CF028FEFE81AF80AF092CF02E092CD
:100B9000CE02E114F104B9F48091EF029091F002D9
:100BA0002091ED023091EE023093F0022093EF029B
:100BB0009093EE028093ED028091C8028F5F809344
:100BC000C8020E94C1038091C5029091C602E81636
:100BD000F90610F4D12C53C0D12CCC24C394E0914D
:100BE000EF02F091F0028081811107C08FEF9FEF3B
:100BF0009093C6028093C50242C0E091EF02F0914B
:100C0000F0020580F681E02DC681D7818A819B8123
:100C1000E816F90628F49093C6028093C5022FC007
:100C20008E010E5F1F4FC8010E94EC018C899D89C7
:100C3000892B21F0CE010C960E94EC018E899091B7
:100C4000CD02981710F48093CD0290E09C01220F02
:100C5000331F220F331F220F331F820F931FB80140
:100C60008D5F9C4F0E949A01E0912703F091280329
:100C70009E898689981708F4B2CFDC2CB0CFE0911A
:100C80002703F0912803868990E0FC01EE0FFF1FF7
:100C9000EE0FFF1FEE0FFF1F8E0F9F1FFC01ED5F7A
:100CA000FC4F8081823010F0DD24D3948091C90202
:100CB000882369F0DD24D3940AC08091CA02909100
:100CC000CB0201969093CB028093CA02D12C8D2D3A
:100CD000DF91CF911F910F91FF90EF90DF90CF9018
:100CE0000895DF92EF92FF920F931F93CF93DF93BC
:100CF0000FB6F8940F928091C20281508093C20285
:100D00008091C202811163C08091D002811133C0F1
:100D100061C0D7011596ED91FC911697C681D781D8
:100D2000CE010C960E94EC018E010E5F1F4FC80190
:100D30000E94EC018E899091CD02981710F4809357
:100D4000CD0290E09C01220F331F220F331F220F90
:100D5000331F820F931FB8018D5F9C4F0E949A0131
:100D6000E0912703F09128039E898689981768F0FF
:100D7000D092C9020AC0C0E0D0E00F2EF4EEEF2EF0
:100D8000F2E0FF2EF02DDD24D394F7018081811154
:100D9000C0CFCD2B11F00E94C103C091CA02D091E7
:100DA000CB02209761F011E00E94B20581111093EF
:100DB000C9022197C9F71092CB021092CA02809102
:100DC000C902882331F00E94090381E003C080E05A
:100DD00001C080E00F900FBEDF91CF911F910F9166
:100DE000FF90EF90DF900895CF93DF93EC01892B74
:100DF00051F00E94AC0560E0CE010E9418040E94F0
:100E00007106811102C00E940903DF91CF910895FC
:100E10008091C202882321F081E08093C902089565
:100E20001092C9022091CD02822F90E0FC01EE0FBA
:100E3000FF1FEE0FFF1FEE0FFF1FE80FF91FED5F03
:100E4000FC4F3081311111C02150822F90E0FC0104
:100E5000EE0FFF1FEE0FFF1FEE0FFF1FE80FF91F32
:100E6000ED5FFC4F3081332379F3AC01440F551F04
:100E7000440F551F440F551F480F591FDA01AD5F2E
:100E8000BC4F1196ED91FC9112970280F381E02DF9
:100E90001296FC93EE9311974A5F5C4FE417F507A7
:100EA00029F442815381FD0152834183FC01EE0FFD
:100EB000FF1FEE0FFF1FEE0FFF1F8E0F9F1FFC0186
:100EC000ED5FFC4F0180F281E02D86819781909348
:100ED0002803809327032093CD020895CF93DF93B7
:100EE000EA01E0912703F091280370687587648711
:100EF0006091270370912803645F7F4F0E949A01DD
:100F000061E0CE010E941804DF91CF9108950F9304
:100F10001F93CF93DF937068FC0171836083C68158
:100F2000D7810E94EC018E010E5F1F4FC8010E9405
:100F3000EC018E899091CD02981710F48093CD0228
:100F400090E09C01220F331F220F331F220F331F0B
:100F5000820F931FB8018D5F9C4F0E949A01E09110
:100F60002703F09128039E898689891718F481E068
:100F70008093C902DF91CF911F910F910895E09165
:100F80002703F091280384859585E0912703F0914C
:100F90002803A0912703B091280356964C9124E092
:100FA00030E0241B3109358724870895F894FFCF5A
:060FB00049444C4500001D
:00000001FF
