S010000051756575655F65782E73726563D3
S11300000C942A000C9447000C9447000C9447006D
S11300100C9447000C9447000C9447000C94B702CE
S11300200C9447000C9447000C9447000C94470030
S11300300C9447000C9447000C9447000C94470020
S11300400C9447000C9447000C9447000C94470010
S11300500C94470011241FBECFE5D8E0DEBFCDBF0E
S113006010E0A0E6B0E0E2EAF2E102C005900D92F1
S1130070A836B107D9F723E0A8E6B0E001C01D9285
S1130080A033B207E1F70E9439010C944F090C9494
S11300900000CF93DF93EC010E9465062091680075
S11300A030916900C9018C0F9D1F883542E0940787
S11300B058F42817390758F4E901C659DF4F9093CB
S11300C069008093680005C0C0E0D0E002C0C0E0D1
S11300D0D0E00E942F07CE01DF91CF9108950895BB
S11300E0FC010396928381832FEF3FEF34832383B4
S11300F0968385839087878310820895FC011186F7
S113010010860895CF93DF93FC01DB0121813281B6
S1130110E9018A819B8113969C938E931297818126
S1130120928115969C938E9314978A819B81EC01FE
S11301307D836C83E9017B836A837283618319966F
S1130140FC93EE93189780818F5F8083DF91CF912A
S11301500895CF93DF93EB01488159814F3F2FEFEF
S1130160520731F4DC011796ED91FC91189717C0F2
S1130170FC013396DC0115962D913C911697D9011B
S11301802D913C914217530750F00280F381E02DEA
S1130190A281B3812D913C9142175307B0F7A281FC
S11301A0B381BB83AA831596DC93CE931497FD8306
S11301B0EC83D383C28399878887FC0120812F5FD6
S11301C02083DF91CF910895FC01A281B3818481C2
S11301D0958115969C938E931497A481B581828101
S11301E0938113969C938E931297A085B185119653
S11301F08D919C911297E817F90731F484819581C8
S113020012969C938E931197118610868C9181502F
S11302108C930895CF93DF931F92CDB7DEB71982E5
S113022020E040ED57E0BE016F5F7F4F80912E03C9
S113023090912F030E944904898182BBF1CFCF930F
S1130240DF931F92CDB7DEB7198289818F5F8983CF
S113025088EE93E00E94B50720E040E050E0BE0144
S11302606F5F7F4F80912E0390912F030E94AF0305
S1130270ECCF8FEF81BB61E085E00E945F03909338
S11302802F0380932E03A12CB12CC12CD12CE12C53
S1130290F12C01E020E030E040E550E060E070E067
S11302A08FE191E00E942C0502E020E030E040E57F
S11302B050E060E070E08AE091E00E942C050E942A
S11302C03A06FFCF31E1FC013083319722E22083EB
S11302D03197A3E3A083319760833197708331977B
S11302E01082319760E8608331971082319762E021
S11302F06083319763E06083319764E06083319772
S113030065E06083319766E06083319767E06083DE
S1130310319768E06083319769E06083319760E1E9
S1130320608331973083319732E13083319733E101
S11303303083319734E13083319735E1308331971D
S113034036E13083319737E13083319738E13083B8
S1130350319739E13083319730E23083319731E29C
S1130360308331972083319723E220833197408370
S113037031975083319726E22083319727E22083F7
S1130380319728E22083319729E22083319720E3B3
S11303902083319721E32083869708951BBC8CE743
S11303A08ABD8BE08EBD89B7806189BFA0912C0383
S11303B0B0912D03CD91CDBFDD91DEBFFF91EF91C3
S11303C0DF91CF91BF91AF919F918F917F916F9169
S11303D05F914F913F912F911F910F91FF90EF905B
S11303E0DF90CF90BF90AF909F908F907F906F9051
S11303F05F904F903F902F901F900F900FBE0F90E3
S1130400089581E008950F920FB6F8940F921F9209
S113041011242F923F924F925F926F927F928F920C
S11304209F92AF92BF92CF92DF92EF92FF920F937F
S11304301F932F933F934F935F936F937F938F9368
S11304409F93AF93BF93CF93DF93EF93FF93A091C9
S11304502C03B0912D030DB60D920EB60D920E9491
S11304600508A0912C03B0912D03CD91CDBFDD9152
S1130470DEBFFF91EF91DF91CF91BF91AF919F913B
S11304808F917F916F915F914F913F912F911F9128
S11304900F91FF90EF90DF90CF90BF90AF909F901F
S11304A08F907F906F905F904F903F902F901F9010
S11304B00F900FBE0F9008950F920FB6F8940F92FD
S11304C01F9211242F923F924F925F926F927F92CC
S11304D08F929F92AF92BF92CF92DF92EF92FF9250
S11304E00F931F932F933F934F935F936F937F9338
S11304F08F939F93AF93BF93CF93DF93EF93FF9328
S1130500A0912C03B0912D030DB60D920EB60D9251
S11305100E946B060E940508A0912C03B0912D0344
S1130520CD91CDBFDD91DEBFFF91EF91DF91CF91F2
S1130530BF91AF919F918F917F916F915F914F91F7
S11305403F912F911F910F91FF90EF90DF90CF90EB
S1130550BF90AF909F908F907F906F905F904F90DF
S11305603F902F901F900F900FBE0F9008950E9400
S11305705C021895CF93DF93EC018C8D8823A9F14D
S1130580411117C0482F50E08C819D810E94300991
S11305902C8D8C819D81820F911D9D838C832A815A
S11305A03B818217930708F1888199819D838C830D
S11305B01CC0482F50E08E819F810E9430098C8D91
S11305C090E09195819591092E813F81280F391FE3
S11305D03F832E83488159812417350730F42A81BB
S11305E03B81820F931F9F838E838A8D8F5F8A8FB7
S11305F0DF91CF910895FC01808191810097A1F052
S1130600448D50E026813781240F351F378326839C
S1130610A281B3812A173B0710F097838683CB010D
S1130620668177810E94300908950F931F93CF93B9
S1130630DF93EC010FB6F8940F928E8D1816B4F474
S11306408989811105C012C08989811104C00EC035
S11306508E010F5E1F4FC8010E949D0881110E94E8
S11306602C098E8D81508E8F181674F38FEF8E8F18
S11306700F900FBE0FB6F8940F928D8D1816B4F428
S11306808885811105C012C08885811104C00EC0FF
S11306908E01085F1F4FC8010E949D0881110E94AE
S11306A02C098D8D81508D8F181674F38FEF8D8FDB
S11306B00F900FBEDF91CF911F910F910895CF92AC
S11306C0DF92EF92FF920F931F93CF93DF938823D0
S11306D0D1F1E62EF82E8FE190E00E944900EC0162
S11306E0892B99F1CE2CD12CFC9C8001FD9C100D02
S11306F01124C80101960E944900998388830097B8
S1130700E1F09C01200F311F3B832A831A8E9D83C5
S11307108C830C191D09080F191F1F830E83FB8E70
S1130720EC8E8FEF8D8F8E8FCE0108960E94700015
S1130730CE0141960E94700008C0CE010E946F0055
S1130740C0E0D0E002C0C0E0D0E0CE01DF91CF91A4
S11307501F910F91FF90EF90DF90CF9008959F929B
S1130760AF92BF92CF92DF92EF92FF920F931F93BB
S1130770CF93DF9300D000D01F92CDB7DEB78C01AA
S11307806B015D834C83922EB12CAA24A3947C012B
S113079088E0E80EF11C0FB6F8940F92F801928DE0
S11307A0838D9817A8F4492DB601C8010E94BA0296
S11307B0F8018189882341F0C80141960E949D086F
S11307C0813011F40E9403020F900FBE81E050C0EB
S11307D08C819D81892B21F40F900FBE80E048C04D
S11307E0B11005C0CE0101960E94E208BA2C0F9008
S11307F00FBE0E9465060FB6F8940F92F801858D1E
S11308008F3F09F4158EF801868D8F3F09F4168EFB
S11308100F900FBEBE016C5F7F4FCE0101960E9408
S1130820ED0881111FC00FB6F8940F92F801928D54
S11308300F900FBE838D98130FC06C817D81C7010B
S11308400E947108C8010E9415030E942F0781119C
S1130850A2CF0E9403029FCFC8010E9415030E94E9
S11308602F0799CFC8010E9415030E942F0780E02B
S11308700F900F900F900F900F90DF91CF911F91D9
S11308800F91FF90EF90DF90CF90BF90AF909F902B
S113089008959F92AF92BF92CF92DF92EF92FF9210
S11308A00F931F93CF93DF9300D000D01F92CDB747
S11308B0DEB78C016B015D834C83922EB12CAA248C
S11308C0A3947C0181E1E80EF11C0FB6F8940F9219
S11308D0F801828D882349F1E680F780B601C801CA
S11308E00E94FB02911010C0F801828D8150828F0A
S11308F080858823B1F0C80108960E949D08813044
S113090081F40E9403020DC0F801F782E682818916
S1130910882339F0C80141960E949D0881110E94E4
S113092003020F900FBE81E04FC08C819D81892B03
S113093021F40F900FBE80E047C0B11005C0CE0176
S113094001960E94E208BA2C0F900FBE0E94650621
S11309500FB6F8940F92F801858D8F3F09F4158E28
S1130960F801868D8F3F09F4168E0F900FBEBE01DD
S11309706C5F7F4FCE0101960E94ED0881111EC06D
S11309800FB6F8940F92F801828D0F900FBE81116B
S11309900FC06C817D81C7010E947108C8010E944B
S11309A015030E942F07811190CF0E9403028DCF5F
S11309B0C8010E9415030E942F0787CFC8010E9417
S11309C015030E942F0780E00F900F900F900F9057
S11309D00F90DF91CF911F910F91FF90EF90DF90D7
S11309E0CF90BF90AF909F900895CF93DF93EC0189
S11309F0E0912C03F0912D03938382838091CA02AA
S1130A009091CB02C817D90768F460912C037091B8
S1130A102D038091E9029091EA026E5F7F4F0E945C
S1130A20A90017C060912C0370912D038091EB02F3
S1130A309091EC026E5F7F4F0E94A900809160004C
S1130A4090916100C817D90720F4D0936100C09336
S1130A506000DF91CF9108954F925F926F927F92E1
S1130A608F929F92AF92BF92CF92DF92EF92FF92BA
S1130A700F931F93CF93DF935C014B01EA0129018C
S1130A8081E290E00E9449003C01009709F4E0C033
S1130A90C114D10409F0D7C0CE010E944900F3016A
S1130AA0908F878B009721F4C3010E946F00D0C000
S1130AB0AE0165EA70E00E9439092197F301878944
S1130AC0908DC80FD91F48E050E0B401C301499686
S1130AD00E944009F30110A2102F053008F014E021
S1130AE0F301168B6301F2E0CF0ED11CC6010E9404
S1130AF07E00C3010C960E947E00F301718660861D
S1130B0085E090E0811B910995878487738A628AC6
S1130B10A201B501CE010E946201F3019183808399
S1130B20E114F10419F0F701718260820FB6F894B0
S1130B300F928091CC028F5F8093CC0280912C0322
S1130B4090912D03892BC9F570922D0360922C038B
S1130B508091CC02813009F03FC0CFEFD2E00F2E5C
S1130B60FCE2EF2EF3E0FF2EF02DCE010E94700088
S1130B702996CE15DF05C9F786EF92E00E94700032
S1130B808DEE92E00E94700080EE92E00E94700070
S1130B9087ED92E00E9470008DEC92E00E9470005C
S1130BA086EF92E09093EC028093EB028DEE92E05C
S1130BB09093EA028093E9020FC08091C7028111E9
S1130BC00BC0E0912C03F0912D038689081720F0C7
S1130BD070922D0360922C03F30186899091C902CF
S1130BE0981710F48093C9029091C2029F5F90936A
S1130BF0C2029091C802981710F48093C80290E042
S1130C009C01220F331F220F331F220F331F820F29
S1130C10931FB60181509D4F0E9482000F900FBE1A
S1130C208091C702882359F0E0912C03F0912D03A1
S1130C308689801730F40E94030281E00AC081E0B3
S1130C4008C081E006C0FC01D08EC78AC60130CF3F
S1130C508FEFDF91CF911F910F91FF90EF90DF9075
S1130C60CF90BF90AF909F908F907F906F905F9048
S1130C704F900895AF92BF92CF92DF92EF92FF927E
S1130C800F93A12CB12CC12CD12CE12CF12C00E020
S1130C9020E030E045E550E062E670E085ED97E065
S1130CA00E942C05813049F4F8948093C702109275
S1130CB0CB021092CA020E94CE010F91FF90EF90D6
S1130CC0DF90CF90BF90AF9008958091C6028F5F60
S1130CD08093C60208950F931F93CF93DF9380915F
S1130CE0C6028111B2C08091CA029091CB020196D2
S1130CF09093CB028093CA028091CA029091CB0256
S1130D00892B99F58091EB029091EC022091E902F4
S1130D103091EA023093EC022093EB029093EA02C2
S1130D208093E9028091C3028F5F8093C302E091B4
S1130D30EB02F091EC028081811107C08FEF9FEFED
S1130D40909361008093600010C0E091EB02F091F9
S1130D50EC020580F681E02D0680F781E02D82818A
S1130D60938190936100809360002091CA02309136
S1130D70CB0280916000909161002817390708F434
S1130D8069C0E091EB02F091EC028081882399F034
S1130D90E091EB02F091EC020580F681E02DC68132
S1130DA0D7818A819B812091CA023091CB02281776
S1130DB03907F8F419C08FEF9FEF90936100809387
S1130DC0600048C0E091EB02F091EC020580F681EE
S1130DD0E02DC681D7818A819B812091CA023091FE
S1130DE0CB022817390728F49093610080936000A0
S1130DF031C08E010E5F1F4FC8010E94E4008C8930
S1130E009D89892B21F0CE010C960E94E4008E89E5
S1130E109091C802981710F48093C80290E09C0146
S1130E20220F331F220F331F220F331F820F931FF2
S1130E30B80181509D4F0E948200E091EB02F09135
S1130E40EC0280818111BECFB6CF8091C5028F5F45
S1130E508093C502DF91CF911F910F910895CF9296
S1130E60DF92EF92FF920F931F93CF93DF930FB60E
S1130E70F8940F928091C60281508093C6028091AB
S1130E80C602811164C08091CC02811132C062C05B
S1130E90D7011596ED91FC911697C681D781CE01A5
S1130EA00C960E94E4008E010E5F1F4FC8010E9441
S1130EB0E4008E899091C802981710F48093C802B8
S1130EC090E09C01220F331F220F331F220F331F88
S1130ED0820F931FB80181509D4F0E948200E091C0
S1130EE02C03F0912D039E898689981758F0DC2CE9
S1130EF009C0D12C0F2EF0EEEF2EF2E0FF2EF02DD4
S1130F00CC24C394F70180818111C2CF8091C502A2
S1130F10882381F08091C502882399F00E946B0692
S1130F208091C50281508093C5028091C5028111D0
S1130F30F5CF07C0F1E0DF1621F08091C4028130C3
S1130F4041F41092C4020E94030281E003C080E0D5
S1130F5001C080E00F900FBEDF91CF911F910F91E0
S1130F60FF90EF90DF90CF900895CF93DF93EC0143
S1130F70892BB1F00E9465068091CA029091CB0240
S1130F80C80FD91F80912C0390912D0302960E94C3
S1130F90E400CE010E94F5040E942F07811102C0D3
S1130FA00E940302DF91CF91089507ED12E0809132
S1130FB0D6028823E1F30E946506D801CC910E94F1
S1130FC02F07CC23A1F30FB6F8940F92D8011596EE
S1130FD0ED91FC911697C681D781CE0102960E94AD
S1130FE0E4008091CC0281508093CC028091D6029F
S1130FF081508093D6020F900FBE8F89988D0E94E6
S11310006F00CE010E946F00D2CF8091C602811181
S113101013C08091C80290E0FC01EE0FFF1FEE0F99
S1131020FF1FEE0FFF1F8E0F9F1FFC01E150FD4FAE
S11310308081882329F01BC081E08093C402089535
S11310408091C80281508093C8028091C80290E0C8
S1131050FC01EE0FFF1FEE0FFF1FEE0FFF1F8E0FA1
S11310609F1FFC01E150FD4F8081882349F380914B
S1131070C80290E09C01220F331F220F331F220F5E
S1131080331F280F391FD901A150BD4F1196ED917F
S1131090FC9112970280F381E02D1296FC93EE935B
S11310A011972E5F3C4FE217F30729F42281338115
S11310B0FD0132832183FC01EE0FFF1FEE0FFF1FA2
S11310C0EE0FFF1F8E0F9F1FFC01E150FD4F0180AB
S11310D0F281E02D8681978190932D0380932C03D8
S11310E00895CF93DF93EB0160912C0370912D034E
S11310F0645F7F4F0E94A90080912C0390912D037F
S113110002960E94E400CF3F8FEFD80759F4609114
S11311102C0370912D036E5F7F4F8DEC92E00E9443
S1131120820008C08091CA029091CB028C0F9D1F4F
S11311300E94F504DF91CF9108950F931F93CF93ED
S1131140DF93DC011596ED91FC911697C681D7814A
S11311508E01045F1F4FC8010E94E4008091C60203
S113116081111CC00A501109C8010E94E4008E8933
S11311709091C802981710F48093C80290E09C01E3
S1131180220F331F220F331F220F331F820F931F8F
S1131190B80181509D4F0E94820005C0B80180EEC5
S11311A092E00E948200E0912C03F0912D0381E0F3
S11311B02E899689291708F480E0DF91CF911F9139
S11311C00F9108952091C302FC0120832091CA024B
S11311D03091CB023283218308950FB6F8940F9295
S11311E0DB012D913C912F3FBFEF3B0769F140910B
S11311F0C302FC015081541751F04091CA0250912E
S1131200CB020180F281E02D4E175F07F8F4409184
S1131210CA025091CB02DC011196ED91FC91129718
S11312204E1B5F0B4217530798F4DB014091CA022F
S11312305091CB024E1B5F0B241B350B2D933C931B
S11312400E94E20880E005C080E003C081E001C0A4
S113125081E00F900FBE089581E08093C402089549
S1131260FB01DC0102C001900D9241505040D8F7BF
S11312700895DC0101C06D9341505040E0F708959A
S1131280FB01DC014150504048F001900D920020D8
S1131290C9F701C01D9241505040E0F70895F894F9
S10512A0FFCF7A
S10B12A2FFFF49444C45000024
S9030000FC
